:020000040800F2
:10000000704E0020E1010008E9010008EB01000842
:10001000ED010008EF010008F101000800000000F8
:10002000000000000000000000000000490100087E
:10003000F5010008000000008D0100082D76000881
:10004000FB010008FB010008FB010008FB010008A0
:10005000FB010008FB010008FB010008FB01000890
:10006000FB010008FB010008FB010008FB01000880
:10007000FB010008FB010008FB010008FB01000870
:10008000FB010008FB010008FB010008FB01000860
:10009000B5440008FB010008FB010008FB01000853
:1000A000FB010008FB010008FB010008FB01000840
:1000B000FB010008FB010008FB010008FB01000830
:1000C000FB010008FB010008FB010008FB01000820
:1000D000FB01000849410008FB0100082542000817
:1000E000FB010008FB010008FB010008FB01000800
:1000F000FB010008FB010008FB010008FB010008F0
:10010000FB010008FB010008FB010008FB010008DF
:10011000FB010008FB010008FB010008AD380008E6
:10012000FB010008FB010008FB010008FB010008BF
:10013000DFF810D000F0C8FC00480047556E0008FA
:10014000AFF30080704E0020224B19680868B0E8B9
:10015000F00F80F30988BFF36F8F4FF0000080F33A
:1001600011884EF00D0E7047000000000648006830
:10017000006880F3088862B661B6BFF34F8FBFF3A3
:100180006F8F00DF00BF00BF08ED00E0EFF30980D4
:10019000BFF36F8F0F4B1A6820E9F00F106008B59E
:1001A0004FF0BF0080F31188BFF34F8FBFF36F8F05
:1001B00007F064F94FF0000080F31188BDE80840B3
:1001C00019680868B0E8F00F80F30988BFF36F8FF3
:1001D000704700BF58010020EFF305807047000012
:1001E0000648804706480047FEE7FEE7FEE7FEE7D1
:1001F000FEE7FEE7FEE7FEE7FEE7FEE76D360008F6
:10020000310100080649074A0868504343F23902A1
:1002100010440860400870470149086070470000BA
:10022000980100206D4EC64140EA01039B0703D0B0
:1002300009E008C9121F08C0042AFAD203E011F825
:10024000013B00F8013B521EF9D27047F0B480EA3E
:100250000102D40F4200B2EB410F02D2024608461F
:1002600011464A0042D0C30DDDB2C1F3C752AD1AE8
:10027000202D35DAC1F3160141F4000204B15242D7
:10028000C5F1200602FA06F12A411044B3EBD05F13
:1002900023D0C4B1012DA0EBC35009DCF0BC4FF05A
:1002A000004202EAC352DBB200F5000000F069BB75
:1002B000400000F1807000EBC350A0F1807040EA74
:1002C000D170490009E0490841EAC071A0EBC35070
:1002D00000F50000400800EBC350F0BC00F048BB44
:1002E0006142012202EB4101001BF6E7F0BC7047BE
:1002F00081F00041AAE780F00040A7E780EA010210
:1003000010B502F00043400022D04A001FD0010E79
:1003100001EB1261C0F35600C2F3560240F4000034
:1003200042F40002A0FB022000047F39140400D034
:10033000401C50EA124001D44000491EC2B20C06D3
:1003400004EBD010401C4008802A02D003E00020BB
:1003500010BD20F00100002900DA0020184310BD74
:1003600030B480EA010202F0004530F0004221F092
:10037000004013D090B1C30DD40DC2F31601C0F3E9
:100380001600E41A41F4000140F400027D34914269
:1003900001D3641C00E04900002C02DA30BC0020CC
:1003A00070474FF400000023914201D3891A0343A0
:1003B00040084FEA4101F7D151B1914202D14FF0CB
:1003C000004105E002D24FF0010101E06FF00101B0
:1003D00003EBC450284430BC00F0CABA420005D038
:1003E000C0F3C7525242914201DC0020704700EB3B
:1003F000C15070472DE9FE4F804681EA0300C00FCF
:100400000C46009021F0004123F00045B8EB0200BB
:10041000A94105D24046214690461C460B4602465D
:1004200023F00040104347D0270DC7F30A00C3F361
:100430000A510290401A019040286BDAC3F313006E
:1004400040F4801B0098924620B10023D2EB030AAF
:1004500063EB0B0B01985946C0F14002504600F087
:1004600056FA06460D4650465946019A00F06EFA75
:1004700010EB08006141002487EA115284EAE77317
:100480001A4340D0009A62B3019A012A4FEA0752F8
:1004900015DC001B61EB02014FF0004202EA07523B
:1004A000CDE90042001C41F5801132462B4600F098
:1004B000A5FA03B0BDE8F08F40462146F9E7001BDE
:1004C00061EB0201001C41F5801300185B4120180C
:1004D000A2F5001747EB030140EAD570B6196D414C
:1004E00011E06D084FEA360645EAC0754FEA07523B
:1004F000001B61EB0201001C41F5801149084FEA25
:1005000030000019514132462B4603B0BDE8F04F90
:1005100000F065BA0098012240000023D0EB0202EF
:1005200063EBE073009821464FEAE074B8EB0000FB
:1005300061EB0401E9E783F000435BE781F00041F0
:1005400058E72DE9FE4F81EA030404F0004421F04E
:10055000004100944FF0000B23F0004350EA0104E7
:100560005ED052EA03045BD0C3F30A54C1F30A55C8
:100570002C44A4F2F3340194A0FB0254C1F3130100
:1005800041F48011C3F3130343F4801301FB0244CD
:1005900000FB034E840A970A44EA815447EA8357D2
:1005A000A4FB076802958D0A05FB07854FEA932C8B
:1005B00004FB0C542705029D4FEA065847EA1637FC
:1005C000B5EB08056EEB070C870E920E47EA811714
:1005D00042EA8312A7FB0201B6EB0B0164EB0004B5
:1005E0002B0D43EA0C335E1844EB1C50DA4651469F
:1005F000E7FB0201C5F313044FEA0B3343EA14533C
:100600004FEA0432019C43EA0603A4F10C0402946D
:10061000009CCDE900B400F0F1F903B0BDE8F08F23
:1006200000200146F9E72DE9F04D81EA030404F0CA
:10063000004B21F0004514464FF0000A23F0004122
:1006400050EA050220D054EA01021DD0C5F30A5732
:100650000246C5F31303C1F31300C1F30A5640F475
:10066000801543F48013A7EB0608101BD64608F24A
:10067000FD3873EB050002D308F1010801E0921880
:100680005B41B8F1000F03DA00200146BDE8F08DB0
:1006900000204FF48011064684460EE0171B73EBD2
:1006A000050705D3121B63EB050306434CEA010C57
:1006B00049084FEA300092185B4150EA0107EDD13A
:1006C00052EA030012D082EA040083EA05010843DB
:1006D00005D0101BAB4106D20122002306E0002208
:1006E0004FF0004302E06FF0010253101AEB0600D6
:1006F0004CEB085110EB0A0041EB0B01BDE8F04D4B
:1007000000F06DB970B521F0004303430CD0C1F384
:100710000A550024D5EB040564EB0403D617AD1A83
:10072000B34102DB0020014670BD201841EB0251AD
:1007300070BDC10F80EAE0700844CA07962300210B
:1007400000F01FB90EB5C10F80EAE0700844CA0777
:10075000002140F233438DE80E000A460B4600F0BC
:100760004DF903B000BD0EB540F2334102910021B6
:10077000CDE900110A460B4600F040F903B000BD78
:1007800000F0004220F00040C10DC0F3160040F41C
:1007900000007F2901DA00207047962903DCC1F1AF
:1007A0009601C84001E096398840002AF4D04042C2
:1007B000704770B5C1F30A5201F000450024C1F33F
:1007C000130140F2FF3341F480119A4201DA002014
:1007D00070BD40F233439A42A2F2334203DC5242EC
:1007E00000F0A4F800E090402C43F1D0404270BDEE
:1007F00000F0004230F000400AD0C10D01F56071F8
:10080000C0F3160042EA0151C20840071143704785
:10081000002001467047000030B5041E71F100044D
:1008200004DB4FF00044404264EB0101141E73F1FD
:10083000000405DB1C464FF00043524263EB040307
:10084000994208BF904230BD01F0004330B421F01E
:10085000004150EA010206D00A0DA2F56072C1F310
:100860001301002A02DC30BC00207047440F44EA28
:10087000C104C100E01830BC00EBC25000F078B8F1
:1008800030B50B46014600202022012409E021FA60
:1008900002F59D4205D303FA02F5491B04FA02F55D
:1008A0002844151EA2F10102F1DC30BD2DE9F05FF4
:1008B0000546002092469B468846064681464024CF
:1008C0001BE0284641464746224600F02FF8534693
:1008D0005A46C01A914110D311461846224600F0DC
:1008E00016F82D1A67EB01084F4622460120002119
:1008F00000F00DF817EB00094E41201EA4F1010491
:10090000DFDC484631462A464346BDE8F09F202AB0
:1009100004DB203A00FA02F1002070479140C2F156
:10092000200320FA03F3194390407047202A04DB88
:10093000203A21FA02F00021704721FA02F3D04058
:10094000C2F120029140084319467047202A06DB75
:10095000CB17203A41FA02F043EAE07306E041FA8D
:1009600002F3D040C2F1200291400843194670477B
:100970000029A8BF7047401C490008BF20F00100B3
:10098000704710B4B0FA80FC00FA0CF050EA010491
:1009900004BF10BC704749B1CCF1200421FA04F423
:1009A00011FA0CF118BF012121430843A3EB0C01FC
:1009B000CB1D4FEA00614FEA102042BF002010BC5F
:1009C000704700EBC35010440029A4BF10BC70470F
:1009D000401C490008BF20F0010010BC704710B552
:1009E000141E73F1000408DA401C41F10001921852
:1009F0005B411A4301D120F0010010BD2DE9F04DFB
:100A000092469B4611B1B1FA81F202E0B0FA80F24F
:100A100020329046FFF77BFF04460F4640EA0A006B
:100A200041EA0B0153465A46084313D0114653EA94
:100A3000010019D0C8F140025046FFF777FF054684
:100A40000E46504659464246FFF761FF084305D01F
:100A5000012004E020463946BDE8F08D0020054322
:100A600046EAE0762C4337430A986305E40AA0EB94
:100A700008000022FD0A44EA47540A3002D500204B
:100A80000146E9E7010510196941DDE9084500194A
:100A90006941BDE8F04DA2E7C1F30A52C1F3130169
:100AA00040F2FF3341F480119A4202DA00200146FD
:100AB000704740F233439A42A2F2334202DC524280
:100AC000FFF734BFFFF723BF064C074D06E0E06891
:100AD00040F0010394E8070098471034AC42F6D385
:100AE000FFF72AFB207A0008407A000870B58C18BE
:100AF00010F8015B15F0070301D110F8013B2A1132
:100B000006D110F8012B03E010F8016B01F8016B1E
:100B10005B1EF9D12B0705D40023521E0DD401F81A
:100B2000013BFAE710F8013BCB1A921C03E013F8E3
:100B3000015B01F8015B521EF9D5A142D8D3002018
:100B400070BD00002DE9F05F0446084690465A4EFD
:100B5000F4606FF02C05FF2805D02D222946404275
:100B600001F0C2F9306130690746FFF7E2FD5349F1
:100B70000968FFF7C3FBB061002C66D0002F75D069
:100B800038B200F027F9B069FFF732FE06F06EFBCD
:100B9000DFF82C814FF080473A464346FFF7D1FCFF
:100BA0004FF0FF394A46FFF7ADFDDFF818A10022EC
:100BB0005346FFF738FDDFF810B100225B46FFF720
:100BC00019FC04460D46F068FFF7BCFD22462B4693
:100BD000FFF7B7FCFFF7EDFD7060B069FFF708FEA7
:100BE00006F044FB3A464346FFF7ABFC4A46FFF7A4
:100BF00089FD00225346FFF716FD00225B46FFF7F2
:100C00009DFC04460D46F068FFF79CFD22462B46EE
:100C1000FFF797FCFFF7CDFDB0604FF4FA64654233
:100C200022462946706801F05FF970602246294625
:100C3000B06801F059F9B06003B2B088BDE8F05F68
:100C4000002201B2104601F0D5BC012001F0FCFCED
:100C5000308A00B200F0BEF81CA0316904F032FD09
:100C600000207061B061BDE8F09FFFE7C8F10000AF
:100C7000FFF75FFD1A49FFF773FB04467061F068E8
:100C8000FFF757FD074617492046FFF737FB394660
:100C9000FFF766FB05F0ECFFB06113490968FFF749
:100CA0002DFBFFF76DFD2D22294601F01DF9306166
:100CB00000B200F08FF866E7BC00002090780008D2
:100CC00033E36740D76B6D400000F03F616B6D20F0
:100CD00073746F702073746565723A25640A00003E
:100CE00000007A44B85E6B438C78000801480088A5
:100CF00070470000BC0000200248008A404200B259
:100D000070470000BC00002070B50D46B4280CD818
:100D1000064C2080C1B2002002F060F8002D04D003
:100D20002088BDE8704000F002BF70BDBC0000200C
:100D300070B503460C460025254E20B2082B10D274
:100D4000DFE803F004101720272F363E12B10020F1
:100D500000F040F80CB1012000E0002001F074FC2C
:100D6000F56070BDBDE8704013460022FF21FFF71B
:100D7000E9BE13460022FF216042BDE8704000B288
:100D8000FFF7E0BEBDE87040134600221921FFF7CF
:100D9000D9BEBDE87040134600226FF01801FFF77E
:100DA000D1BEBDE87040134600222D21FFF7CABE18
:100DB000BDE87040134600226FF02C01FFF7C2BE61
:100DC000002000F007F8012001F03EFCF56070BD46
:100DD000BC00002010B52D22514201F085F80649D3
:100DE0000861FFF783FF097CBDE810400844C1B2E9
:100DF000002001F0F3BF0000BC0000202DE9F05FEF
:100E0000FFF7E8FF344E3069FFF793FC3349096878
:100E1000FFF774FAB061FFF7EBFC06F027FADFF892
:100E2000C0804FF080473A464346FFF78AFB4FF0B9
:100E3000FF394A46FFF766FCDFF8A8A000225346B8
:100E4000FFF7F1FBDFF8A0B000225B46FFF7D2FA14
:100E500004460D46F068FFF775FC22462B46FFF767
:100E600070FBFFF7A6FC7060B069FFF7C1FC06F0ED
:100E7000FDF93A464346FFF764FB4A46FFF742FC5A
:100E800000225346FFF7CFFB00225B46FFF756FBDD
:100E900004460D46F068FFF755FC22462B46FFF747
:100EA00050FBFFF786FCB0604FF4FA6465422246BF
:100EB0002946706801F018F8706022462946B0682B
:100EC00001F012F8B06003B2B088BDE8F05F002214
:100ED00001B2104601F08EBBBC00002090780008E3
:100EE00033E36740D76B6D400000F03F704706F07A
:100EF0007BBA000010B506488178002907D101218E
:100F0000817001F007FFBDE8104002F0E3BC10BDA6
:100F10000C00002010B501F00DFE05F06FFD00F093
:100F200003FE00F067F9012808D001F061F90223FF
:100F3000BDE810400422194601F0F6BC10BD10B502
:100F400000F03EF9BDE8104005F00ABD0149087007
:100F5000704700000C0000201CB500240A20CDE9D9
:100F6000000423464FF400721EA1214806F074FBD2
:100F700020A004F0A7FB0920CDE900040023802273
:100F800021A1254806F068FB24A004F09BFB082063
:100F9000CDE900040023802226A1294806F05CFB4D
:100FA00028A004F08FFB0420CDE900040023802258
:100FB00029A12D4806F050FB2CA004F083FB05204E
:100FC000CDE90004002380222EA1324806F044FB24
:100FD00031A004F077FB36A004F074FBBDE81C40A0
:100FE00006F01CBA5461736B205370656564000091
:100FF000B1750008737461727420765461736B5F0D
:1010000053706565640A00005461736B20436F6E12
:1010100074726F6C00000000F574000873746172E4
:101020007420765461736B5F436F6E74726F6C0AD9
:10103000000000005461736B204B45590000000014
:1010400031750008737461727420765461736B5F3C
:101050004B65790A000000005461736B2041707089
:101060005F48616E646C6500C574000873746172DA
:101070007420765461736B5F4170705F48616E6479
:101080006C650A005461736B2054726163696E670A
:1010900000000000CD7500087374617274207654EE
:1010A00061736B5F54726163696E670A00000000D0
:1010B000737461727420765461736B5374617274CB
:1010C0005363686564756C65720A000010B5064C60
:1010D0006088401C80B260800A2803D300206080B2
:1010E00000F006F9607810BD40000020014840681B
:1010F000704700004000002038B50121102001F0A9
:10110000E5FE2020ADF8000010208DF8030003203C
:101110008DF80200044C6946204600F0C1FD2021F4
:10112000204600F046FE38BD00100140014800781E
:1011300070470000F600002001484088704700001A
:10114000F600002070B50446164D012C10D0DCB11D
:101150000A2C25D3022000F027F80A20B4FBF0F077
:1011600000F028F82846BDE87040202100F023BE9A
:10117000012000F019F8002000F01CF82846BDE816
:101180007040202100F017BE002000F00DF8002074
:1011900000F010F82846BDE87040202100F009BE9C
:1011A00070BD000000100140014908707047000048
:1011B000F60000200149488070470000F60000203A
:1011C00010B5FFF7B3FF022806D1FFF7B5FF20B136
:1011D00006484188491E418010BD2021044800F086
:1011E000E8FDBDE810400020FFF7DEBFF60000205C
:1011F000001001400148407870470000F0000020D6
:1012000010B505F0F3FD4FF4A06001F073FB4FF44F
:10121000E134204602F0ACFF02230422194611A05B
:1012200004F050FA1AA21DA11FA004F04BFA2046A8
:1012300003F00CF8012000F047F800F009FEFFF77A
:101240005BFF00F0F3FD01F009FF00F01DFE00213F
:10125000601101F01DFA00F045FABDE8104002F0FF
:10126000C1BE00000A4669726D77617265205665DD
:101270007273696F6E3A204B3231302D524F532DBD
:101280004341522D5625642E25642E25640A000004
:1012900030393A31383A3233000000004175672066
:1012A00020342032303233004669726D77617265C6
:1012B00020436F6D70696C65643A2025732C20257E
:1012C000730D0A0A0000000041060748826942F0D7
:1012D000010282610548426822F0E0624260426891
:1012E0000A434260704700000010024000000140C5
:1012F00010498878401CC0B288701E2801D3002095
:1013000088708A780C48531E4FF40051032B01D289
:1013100000F051BD131F032B01D200F04ABDD31FB3
:10132000032B01D200F047BD0A3A032A01D200F094
:1013300040BD7047F00000200010014007A004F0FD
:10134000C1F9012080F3138808480168084A01F4B4
:10135000E06111430160BFF34F8FFEE70D0A526554
:10136000736574204D43550D0A0000000CED00E03C
:101370000400FA0502460020002905D0012902D107
:10138000106900F003007047D06800F00300704758
:101390001CB50178C4790022FC291CD10121435CD1
:1013A0001A44D2B2491C0729F9DBA24213D1427870
:1013B00081788DF80010C1788DF8011001798DF8D1
:1013C000021041798DF8031080798DF80400694688
:1013D000104603F05DFA1CBD0449002802D001202C
:1013E0000870704700200870704700001E01002040
:1013F00010B500EB0113D3F8B04104F004041472EB
:10140000002C2CD0D3F8B041E408546003F5D87315
:101410001C6804F0020454725C6804F00F049472B7
:101420005C68240AD4749C68D4729C68240A14737F
:101430009C68240C54739C68240E9473DC68D473E9
:10144000DC68240A1474DC68240C5474DB681B0EFA
:10145000937449B1016941F02001016110BDD3F8D5
:10146000B041640D1460D1E7C16841F02001C16052
:1014700010BD000070B586B005461E4C0021204608
:10148000FFF778FF01004FF000002AD001908DF89F
:101490000C0008218DF80E10002101AE7218D072D8
:1014A000491C0829FADB01AA00212046FFF7A0FF0A
:1014B00011A004F007F900243019C17A295512A0AF
:1014C00004F000F9641C082CF6DB11A004F0FAF813
:1014D00010480078002802D03220FFF733FE06B013
:1014E00070BD00216854491C0829FBDB0AA004F0E8
:1014F000E9F8F4E70064004043616E2D3E646174D6
:10150000612052583A000000253032582C0000006B
:101510000A0000001E01002043616E2D3E646174CC
:1015200061205258204572726F720A0002480021F1
:10153000C17181717047000000000020C10002D518
:10154000024908607047024948607047040402403D
:1015500000000240002904D0016841F0010101604F
:10156000704701684FF6FE7211400160704700003D
:1015700001684FF6FE721140016000210160416078
:101580008160C1603649364A0839904204D14868C2
:1015900040F00F0048607047314A1432904204D145
:1015A000486840F0F000486070472D4A2832904269
:1015B00004D1486840F4706048607047284A3C3263
:1015C000904204D1486840F4704048607047244A13
:1015D0005032904204D1486840F47020486070470F
:1015E0001F4A6432904204D1486840F47000486059
:1015F00070471B4A7832904204D1486840F07060CE
:1016000048607047174A111F904204D1086840F0A3
:101610000F0008607047134A1432904204D10868E2
:1016200040F0F000086070470E4A2832904204D122
:10163000086840F47060086070470A4A3C32904283
:1016400004D1086840F4704008607047054A503281
:101650009042FAD1086840F470200860704700009A
:10166000080002400804024002460020D10002D5D2
:101670000449096801E004490968114200D00120C9
:1016800070470000000402400000024030B50268CC
:1016900047F6F0739A430C6A8B682343D1E90445FB
:1016A0002C4323438C692343CC6923434C6A234353
:1016B0008C6A234313430360CA6842600A688260ED
:1016C0004968C16030BD41607047000004490A6844
:1016D00002604A6842608A688260C968C160704777
:1016E0000001002010B500F009F800F0D5F800F076
:1016F00035F9BDE8104000F06DB8000010B588B0B5
:101700000120FFF7E1FD0121084601F0DFFB012187
:101710002D4800F019FB0121084601F0BBFB012117
:10172000042001F0D3FB4FF40040ADF80400042482
:101730008DF8074001A9254800F0B2FA01210820E0
:1017400001F0C4FB0820ADF804008DF8074001A9A2
:101750001F4800F0A5FA05A802F01AFC0020ADF819
:1017600014004FF6FF71ADF81810ADF81A00ADF87F
:101770001600240705A9204602F0BCFB00231A46E8
:101780000321204602F0FCF902A802F065FA0A21C2
:10179000ADF8101002A9204602F018FA01212046E7
:1017A00002F0C6F801221146204602F05DFA00213F
:1017B000204602F074FB47F6FF71A1840121204608
:1017C00002F0BCF808B010BD00011800000801408C
:1017D000000C014030B587B00121022001F05AFB16
:1017E0000121042001F072FB8020ADF800000424E8
:1017F0008DF80340264D6946284600F051FA012134
:10180000042001F063FB4021ADF800108DF8034087
:101810006946284600F044FA04A802F0B9FB00200B
:10182000ADF810004FF6FF71ADF81410ADF81600CA
:10183000ADF81200174C04A9204602F05BFB002310
:101840001A460321204602F09BF901A802F004FA8F
:101850000A21ADF80C1001A9204602F0B7F90121C8
:10186000204602F065F801221146204602F0FCF9FC
:101870000021204602F013FB064A47F6FF7124328E
:1018800011800121204602F059F807B030BD000058
:10189000000801400004004030B587B00121042059
:1018A00001F0F8FA0121082001F010FB8020ADF8CA
:1018B000000004248DF80340264D6946284600F0B8
:1018C000EFF90121082001F001FB4021ADF80010E3
:1018D0008DF803406946284600F0E2F904A802F0BA
:1018E00057FB0020ADF810004FF6FF71ADF8141053
:1018F000ADF81600ADF81200174C04A9204602F00E
:10190000F9FA00231A460321204602F039F901A80A
:1019100002F0A2F90A21ADF80C1001A9204602F04C
:1019200055F90121204602F003F801221146204614
:1019300002F09AF90021204602F0B1FA064A47F671
:10194000FF71243211800121204601F0F7FF07B01A
:1019500030BD0000000C01400008004030B587B0E9
:101960000121082001F096FA0121042001F0AEFACD
:101970000120ADF8000004248DF80340264D69468F
:10198000284600F08DF90121042001F09FFA022180
:10199000ADF800108DF803406946284600F080F944
:1019A00004A802F0F5FA0020ADF810004FF6FF7120
:1019B000ADF81410ADF81600ADF81200174C04A9DC
:1019C000204602F097FA00231A460321204602F02F
:1019D000D7F801A802F040F90A21ADF80C1001A9CE
:1019E000204602F0F3F80121204601F0A1FF012278
:1019F0001146204602F038F90021204602F04FFA45
:101A0000064A47F6FF71243211800121204601F079
:101A100095FF07B030BD000000080140000C0040F9
:101A20000146002047F6FF7200290BD0012910D093
:101A3000022914D0032904D10C490888101A00B2D5
:101A40000A8070474FF08041888C101A00B28A8457
:101A5000704707490888101A00B20A807047054984
:101A60000888101A00B20A80704700002404004061
:101A700024080040240C004010B500F0B9FB294CAC
:101A800002281CD000F0B4FB042831D00020FFF75E
:101A9000C7FF2168084420600120FFF7C1FF61688B
:101AA000081A60600220FFF7BBFFA168081AA06057
:101AB0000320FFF7B5FFE1680844E06010BD002097
:101AC000FFF7AEFF2168081A20600120FFF7A8FF8A
:101AD0006168084460600220FFF7A2FFA168084423
:101AE000A0600320FFF79CFFE168081AE06010BDCA
:101AF0000020FFF795FF2168081A20600120FFF7FA
:101B00008FFF6168084460600220FFF789FFA168C9
:101B10000844A0600320FFF783FFE168081AE06033
:101B200010BD0000000100207047704770477047EB
:101B30007047704770477047704700002DE9F041CB
:101B40000546904600F032FB07462846FEF7F1FDB9
:101B5000294C064620604046FEF7EBFD2749FEF77C
:101B6000FFFB3946FEF7CAFB0746606055EA0805E9
:101B70003CD039463046FEF7BBFBFEF701FEA060C5
:101B80000546E06039463046FEF760FBFEF7F8FD9B
:101B90002061014660614FF47A72954200DDA260D7
:101BA0001748A368834200DAA060954200DDE26036
:101BB000E368834200DAE060914200DD226123693C
:101BC000834200DA2061914200DD626161698142F5
:101BD00000DA6061A08A03B2208A02B2A08901B251
:101BE0002089BDE8F04100B200F004BDBDE8F0413D
:101BF000012000F029BD0000D800002000007A4438
:101C000018FCFFFF30B403460C466008082B45D291
:101C1000DFE803F0040B121A222C35400CB101202E
:101C200000E0002030BC00F00FBD134620B20022BF
:101C300030BC1146FFF782BF13460022604230BC21
:101C4000114600B2FFF77ABF610009B213460A4697
:101C500030BC0021FFF772BFC4EBC431490009B2A8
:101C600013460A4630BC0021FFF768BF04EB84002E
:101C7000002302B230BC19461846FFF75FBF04EBE1
:101C80008400C0EB0440002302B230BC1946184661
:101C9000FFF754BF30BC012000F0D6BC30BC704709
:101CA0002DE9F0410022CC7804F00F03E40601D5C1
:101CB0008C7823430C784FF00F0714F0FF0F4FF090
:101CC000010C1CD005680CFA02F40E882640A642CE
:101CD00011D1960007FA06F825EA080503FA06F876
:101CE00048EA0505CE78282E02D0482E02D002E020
:101CF000446100E00461521C082AE4D305600A88AC
:101D0000FF2A1ED94568002202F108060CFA06F4E3
:101D10000E882640A64210D1960007FA06F825EA5A
:101D2000080503FA06F848EA0505CE78282E00D102
:101D30004461CE78482E00D10461521C082AE3D3B6
:101D40004560BDE8F0810000F0B5154C002801DACF
:101D5000E36900E06368C0F30346420D120185B2F7
:101D6000C0F301579540032F07D0C2020CD50322C0
:101D7000B240934343F0706209E023F070626368FD
:101D800023F07063636002E0AB4343F0706201B123
:101D90002A43002801DAE261F0BD6260F0BD000074
:101DA000000001400246002092680A4200D0012053
:101DB00070474161704701617047000001488079B8
:101DC00070470000000000200148C0797047000003
:101DD0000000002000487047A401002010B5044610
:101DE00000F018F80A4A012807D00020508010801F
:101DF0005088022809D0002010BD5188641CB1EB26
:101E0000440FF5D2491C5180F2E70120108010BD2B
:101E1000FC00002010B504210348FFF7C3FF08B100
:101E2000002010BD012010BD0014014008B50121A3
:101E3000202001F04BF80420ADF8000048208DF878
:101E4000030069460148FFF72BFF08BD001401405D
:101E500038B50121102001F039F84FF40054ADF8E5
:101E6000004010208DF8030003208DF80200054D7E
:101E700069462846FFF714FF21462846FFF79BFFD7
:101E800038BD0000001001402DE9F04399B06022F8
:101E900013496846FEF7C8F900246F464FF003085F
:101EA0004FF0180904EB440507EB85060121B068E3
:101EB00001F00CF8B088ADF860008DF862808DF804
:101EC000639057F8250018A9FFF7EAFE641C082C58
:101ED000E8DB04490F20087019B0BDE8F08300006A
:101EE00094780008FA000020884201DA084670471A
:101EF0009042FCDD104670472DE9F04707460D463D
:101F0000164600F053F982466842FEF712FC4B4C2D
:101F1000804660603846FEF70CFC8146A060704247
:101F2000FEF707FC4649FEF71BFA5146FEF7E6F9B5
:101F30008246E0602F43374356D041464846FEF77D
:101F400085F905465146FEF781F9FEF719FC206137
:101F500041464846FEF7CCF906465146FEF776F96B
:101F6000FEF70EFC606130465146FEF7C1F9FEF700
:101F700007FCA06128465146FEF7BAF9FEF700FCBF
:101F8000E06100F035F9022833D021694FF47A700E
:101F9000814200DD20612B4922698A4200DA2161F9
:101FA0006269824200DD606162698A4200DA6161D1
:101FB000A269824200DDA061A2698A4200DAA161C1
:101FC000E269824200DDE061E069884200DAE161B5
:101FD000A08B03B2208B02B2A08A01B2208ABDE896
:101FE000F04700B200F006BBBDE8F047012000F06A
:101FF0002BBB20694FF42F71884200DD216112480C
:102000002269824200DA206162698A4200DD6161F0
:102010006269824200DA6061A2698A4200DDA161E0
:10202000A269824200DAA061E2698A4200DDE161D0
:10203000E1698142CCDAE061CAE70000800000205B
:1020400000007A4418FCFFFF44FDFFFF2DE9F0413A
:1020500006460C469046404600F0EAFA2C4F3C807B
:10206000614220B20DB2082E4FD2DFE806F0040E16
:10207000151D252D3A49002038800CB1012000E0C3
:102080000020BDE8F04100F0DFBA4346BDE8F04172
:1020900000221146FFF730BF43462846BDE8F04115
:1020A00000221146FFF728BF4346BDE8F041002259
:1020B00001461046FFF720BF43462946BDE8F041E0
:1020C00000221046FFF718BF002000F0B1FA04EB21
:1020D0008400BDE8F041002302B219461846FFF71C
:1020E0000BBF002000F0A4FA04EB8400C0EB044016
:1020F000BDE8F041002302B219461846FFF7FCBEC6
:10210000BDE8F041012000F09FBABDE8F081000079
:102110008000002030B4134CA478012C08D0022C8D
:1021200009D0042C19D0052C1AD130BCFEF70ABDF9
:1021300030BCFFF7E1BE4FF42F75A84200DD284602
:10214000094CA04200DA2046A94200DD2946A142FE
:1021500000DA214630BCFFF7CFBE30BCFFF7EEBC43
:1021600030BC70474800002044FDFFFF01EB8101B7
:102170004FF6FF7303EA41010B4B9B78012B07D00D
:10218000022B07D0042B0CD0052B0CD1FEF7D0BDB1
:10219000FFF75CBF4FF42F73994200D91946FFF740
:1021A00055BFFFF72FBD7047480000200A488178CF
:1021B0000A48012908D0022907D0032907D0052998
:1021C00007D0042900D106487047064870470648E2
:1021D000704706487047000048000020148E2443D2
:1021E0000000FD429A19564300802E439A193F433E
:1021F0000148807870470000480000200948817835
:102200000948012908D0022907D0032904D005294B
:1022100005D0042900D10548704705487047054896
:102220007047000048000020F8334C433DCA164375
:10223000B6537B4333335743084881780848012914
:1022400006D0022905D0042905D0052900D105486A
:102250007047054870470548704700004800002057
:102260000000A5440000514400001A4500008244CB
:102270002DE9F05F2348FFF729FA0024DFF884A056
:102280000AF1100808F1200708F1100907F1100BF6
:102290005AF8240058F82410411A49F8241048F834
:1022A0002400FFF7C9FF054659F8240041F2707178
:1022B0004843FEF73EFA2946FEF752F8FEF760FA69
:1022C00047F82400FFF79AFFFEF792FA00220E4B20
:1022D000FEF7A9F905460E4657F82400FEF732FA34
:1022E0002A463346FEF72DF90022084BFEF79BF9EC
:1022F000FEF7AAFA4BF82400641CE4B2042CC7D3FE
:10230000BDE8F09FC401002000408F4000004E4017
:102310002DE9F04F85B0044600250026019602966F
:1023200003960496FFF76AFF8146FFF785FF824612
:10233000FFF73CFF0090FFF79BFFDFF8D08101AF74
:10234000642158F825004843FEF7F3F94946FDF7A4
:10235000D5FF5146FEF704F847F825006D1C042D03
:10236000EEDBDFF8AC816B4DDFF8ACA198F8020032
:102370006FF00109012806D0022839D004286CD05A
:10238000052834D18FE0DDE90101FDF75FFF064646
:102390000399FDF75BFF0499FDF758FF4946FEF7E7
:1023A0001DF8FEF7EDF92080DDE90101FDF7A0FF42
:1023B0000399FDF79DFF0499FDF748FF2946FDF7B6
:1023C0009DFFFEF7DDF9608030460399FDF790FF31
:1023D0000499FDF78DFF2946FDF790FF0099FDF761
:1023E000BFFF5146FDF78AFFFEF7CAF9A08075E0EE
:1023F000DDE90101FDF72AFF06460399FDF726FFF7
:102400000499FDF723FF4946FDF7E8FFFEF7B8F909
:102410002080DDE90101FDF76BFF0399FDF768FFFF
:102420000499FDF713FF2946FDF768FFFEF7A8F9A9
:10243000608030460399FDF75BFF0499FDF758FF74
:102440002946FDF75BFF0099FDF78AFF5146FDF72E
:1024500055FFFEF795F9A08040E0DDE90101FDF7A9
:10246000F5FE83460399FDF7F1FE0499FDF7EEFEB4
:102470004946FDF7B3FFFEF783F920806680584692
:102480000399FDF735FF0499FDF732FF2946FDF763
:1024900035FF0099FDF764FF5146FDF72FFFFEF76A
:1024A0006FF9A0801AE004990298FDF7CFFE4FF073
:1024B000FF31FDF793FFFEF763F92080FEF71CFC68
:1024C000608004990298FDF713FF1449FDF716FF89
:1024D0000099FDF745FFFEF753F9A08098F800003A
:1024E000002810D000200949303157F8202041F849
:1024F0002020401C0428F8DB05B00448BDE8F04F5C
:10250000303000F09FBA05B0BDE8F08FE401002044
:1025100048000020000080BE00007A4400007AC419
:102520002DE9F0411048FFF7F3FE0F48001F007837
:10253000002817D00D4CE069FEF722F905B2A0691A
:10254000FEF71EF906B26069FEF71AF907B22069B4
:10255000FEF716F92B4632463946BDE8F04100B287
:1025600000F01CB8BDE8F0814C00002014020020EF
:1025700010B506280ED208498A7882420AD088709F
:10258000052807D1FEF7B2FBC1B2BDE8104000201C
:1025900000F024BC10BD0000480000202DE9F041EF
:1025A00084460F4616461C460CF561604FF4E15513
:1025B000A84203D86146002000F0E6F807F5616103
:1025C000A94203D83946012000F0DEF806F5616122
:1025D000A94203D83146022000F0D6F804F5616024
:1025E000A84205D82146BDE8F041032000F0CCB850
:1025F000BDE8F08170B50C4D01242C700B4D288482
:102600006984AA84EB84002405EB4400B0F920001F
:10261000FEF78FF80146204600F02AFB641CE4B266
:10262000042CF1D370BD00004800002014020020EB
:102630000449002802D001204870704700204870EB
:10264000704700004800002010B5044600231A46D9
:1026500019461846FFF7CEFF042000F009FA044996
:1026600000220A704A702046BDE8104000F0DCB835
:1026700048000020002803DD00F5FA6000B2704732
:1026800003DAA0F5FA6000B270474FF0000070471F
:10269000F0B587B004460D4601214FF4205000F0FC
:1026A00015FC0121084600F011FC01213348FFF719
:1026B0004BFB334E304601F05BF9324F384601F0A8
:1026C00057F9ADF80050641EADF804400024ADF891
:1026D0000640ADF802406946304601F00BFC694601
:1026E000384601F007FC03A801F0C6FB6025ADF8F1
:1026F0000C500120ADF80E00ADF81440ADF81240BA
:1027000003A9304601F0BAFA03A9304601F0FAFAFB
:1027100003A9304601F03AFB03A9304601F078FBEB
:1027200003A9384601F0AAFA03A9384601F070FB64
:10273000ADF80C50ADF80E400420ADF81000ADF827
:102740001440ADF8124003A9384601F0DBFA03A9A2
:10275000384601F01BFB0121304601F0FBF8012156
:10276000384601F0F7F80121304601F0E7F8012181
:10277000384601F0E3F807B0F0BD00004000160055
:1027800000340140002C014010B504460846FFF714
:1027900071FF4FF46161884200DB08461F4988429F
:1027A00000DC0846002164B1012C17D0022C23D094
:1027B000032C05D11A4B1A1D00282ADB1880118022
:1027C00010BD404200B2174B1A1D002802DB1880D2
:1027D000118010BD19804042108010BD404200B2EF
:1027E000104B08331A1D002802DB1880118010BD21
:1027F00019804042108010BD094B094A0833121F4E
:10280000002802DB1880118010BD19804042108022
:1028100010BD19804042108010BD0000F0F1FFFF94
:10282000382C01403434014070B5002800D001201C
:10283000C0EB4011C1EB00214FF6FF7000EA01141C
:10284000114D2146284601F021FB2146284601F082
:102850001FFB2146284601F01DFB2146284601F0BA
:102860001BFB0A4D2146284601F010FB2146284655
:1028700001F00EFB2146284601F00CFB21462846BC
:10288000BDE8704001F008BB00340140002C01405D
:1028900070B50F23C27801260178002A1ED0144A91
:1028A000126802F4E062C2F5E062120AC2F10404A6
:1028B000D3404578A54082781A402A43120101F19D
:1028C000E02181F80024007800F01F018E404009CB
:1028D000800000F1E020C0F8006170BD01F01F0031
:1028E00086404809800000F1E020C0F8806170BD9A
:1028F0000CED00E0024908430249086070470000FF
:102900000000FA050CED00E018B51446491E022936
:1029100008D801EB810149060A0E009323460021E5
:1029200000F001F818BD704770B586B00D46164628
:102930001C46012826D002282BD0042830D0052898
:1029400035D00122002311461CA0FFF7DDFF3346DE
:102950002A461EA101A8009402F0C4FE00231A46D4
:10296000022101A8FFF7D0FF1DA320A222A101A8E8
:1029700002F0B8FE01230022032101A8FFF7C4FFE3
:1029800006B070BD0122002311461DA0FFF7BCFF59
:10299000DDE70122002311461DA0FFF7B5FFD6E7B2
:1029A0000122002311461FA0FFF7AEFFCFE701224F
:1029B000002311461FA0FFF7A7FFC8E74E6F6E6503
:1029C000204361722054797065000000566572736F
:1029D000696F6E3A5625642E25642E25640000002A
:1029E00030393A31383A3232000000004175672000
:1029F000203420323032330025732020257300002C
:102A0000524F534D41535445525F5833000000001C
:102A1000524F534D41535445525F58332D506C75AE
:102A200073000000524F534D41535445525F58318B
:102A300000000000524F534D41535445525F5232F3
:102A40000000000070B505460024084E04EB840029
:102A500055F8241006EBC00000F02CF805EB8401BB
:102A60000861641C042CF1DB70BD00003C020020F6
:102A700000220F4B04280FD80FD14FF0000101EBBB
:102A8000810003EBC00082608261C2610262426227
:102A900001F101010429F2DB704700EB800003EB38
:102AA000C00082608261C2610262426270470000BF
:102AB0003C0200202DE9F04104462068FDF718FC97
:102AC0000546A061266A01213046FDF787FC2946AC
:102AD000FDF711FCE169FDF7B9FB6169FDF70EFC3B
:102AE000074629462069FDF709FC804631462846FD
:102AF000FDF7FEFBE168FDF701FC4146FDF7A6FB93
:102B00003946FDF7A3FBA168FDF7A0FBA060E661D5
:102B100025620649884200DDA1600548A16881421E
:102B200000D9A060A068BDE8F08100000000C844A2
:102B30000000C8C470B500210F4B104D00224FF0AB
:102B40007F544FF07C5601EB810043F8302003EBBB
:102B5000C00082608261C26102624262C46005613B
:102B60004661491C0429EEDB064805494160826044
:102B70000549C16070BD00003C0200200AD7A33D9A
:102B8000CDCCCC3E54000020CDCCCC3D2DE9FF4730
:102B9000814688461646264AB9F1040F24D825D125
:102BA0004FF0000000EB800102EBC101C1F80C8086
:102BB0000E614B6100F101000428F3DB1846FDF7BC
:102BC00017FE04460D463046FDF712FE06460F4638
:102BD0004046FDF70DFE02460B4616A0CDE9006704
:102BE000CDE9024502F06EFDBDE8FF8709EB8900E3
:102BF00002EBC000C0F80C80066143611846FDF787
:102C0000F7FD04460D463046FDF7F2FD06460F4639
:102C10004046FDF7EDFD02460B4609F101010CA00F
:102C2000CDE90067CDE9024502F04CFDDCE700008C
:102C30003C020020504944205365743A252E3366E7
:102C40002C20252E33662C20252E33660A0000000A
:102C500050494420536574204D25643A252E33662F
:102C60002C20252E33662C20252E33660A000000EA
:102C7000094A04280AD80AD14FF0000000EB80036B
:102C800042F8331000F101000428F7DB704700EB35
:102C9000800042F8301070473C020020024B586020
:102CA0009960DA60704700005400002070B5174C3E
:102CB0002088401C80B22080A51D01232E88144945
:102CC0000022864202D3C1F88C3101E0C1F88C2188
:102CD0006E88864202D3C1F8883101E0C1F88821AC
:102CE000AE88864202D3C1F8843101E0C1F8842164
:102CF000ED88854202D3C1F8803101E0C1F880211E
:102D0000B0F5FA6F00D3228070BD000010010020E2
:102D100000002242F8B50121102000F0D7F8082069
:102D2000ADF8000010258DF8035003248DF8024003
:102D3000284E69463046FEF7B3FF08213046FFF7BC
:102D40003AF80121102000F0C1F80420ADF800008D
:102D50008DF803508DF8024069463046FEF7A0FF1B
:102D600004213046FFF727F80121102000F0AEF8CB
:102D70000220ADF800008DF803508DF8024069463E
:102D80003046FEF78DFF02213046FFF714F801218F
:102D9000102000F09BF80120ADF800008DF80350E2
:102DA0008DF8024069463046FEF77AFF0121304631
:102DB000FFF701F80020084A5A210A2440F2D253B2
:102DC000151D1154B3FBF4F625F81060401C0428BF
:102DD000F7DBF8BD0010014012010020042810D2DA
:102DE000B4290ED8074A115401EB410202EBC1018C
:102DF00001F5FA710A22B1FBF2F1024A121D22F822
:102E00001010704712010020F0B51A4E0A24351D2B
:102E1000B42809D8307000EB400707EBC00000F57C
:102E2000FA70B0FBF4F02880B42909D8717001EB76
:102E3000410000EBC10000F5FA70B0FBF4F06880CF
:102E4000B42A09D8B27002EB420000EBC20000F5D0
:102E5000FA70B0FBF4F0A880B42B09D8F37003EB40
:102E6000430000EBC30000F5FA70B0FBF4F0E8801B
:102E7000F0BD000012010020054A002903D051696D
:102E800001435161704751698143516170470000AE
:102E900000100240054A002903D0D1690143D161E5
:102EA0007047D1698143D161704700000010024032
:102EB000054A002903D01169014311617047116966
:102EC000814311617047000000100240054A00294B
:102ED00003D0916901439161704791698143916188
:102EE0007047000000100240054A002903D0D16855
:102EF0000143D1607047D1688143D16070470000C1
:102F00000010024010B5264A516801F00C01254B13
:102F1000002927D0042927D0082927D00360516829
:102F200001F0F0010909204B5C5C0168E14041605F
:102F3000546804F4E064240A1C5D21FA04F48460FB
:102F4000546804F46054E40A1B5DD940C1605268BF
:102F500002F44042920B144B1B1F9A5CB1FBF2F13E
:102F6000016110BD0360DAE70360D8E7516801F43E
:102F70007011536803F48033022404EB914133B1A0
:102F800053689B0307D5094B59430160C7E7074BBB
:102F900059430160C3E7034B59430160BFE7000099
:102FA0000010024000127A002C01002000093D00B0
:102FB0000020044A002142F82010401CC0B20E2814
:102FC000F9D370471804002010B58CB001210220FD
:102FD000FFF752FF0D4C2046FEF7CAFA0C4801904D
:102FE0000C4802901020039000210491059180204C
:102FF000069007910891099180010A900B9101A90F
:103000002046FEF743FB0CB010BD00001C0402403C
:103010000C3C00405004002010B500F04FF8BDE813
:103020001040FFF7D1BF000038B501210820FFF79D
:103030004DFF2020ADF8000018208DF8030003207C
:103040008DF80200044C69462046FEF729FE202137
:103050002046FEF7AEFE38BD000C014010B5FFF76C
:10306000E3FFBDE81040FFF7D7BF0000120442EABB
:1030700001211943074A0E2802D242F82010704756
:10308000FF28FCD1002042F82010401CC0B20E28BE
:10309000F9D3704718040020074A0E2802D242F8DC
:1030A00020107047FF28FCD1002042F82010401C5F
:1030B000C0B20E28F9D370471804002010B586B0AE
:1030C0000121C803FFF7E6FE4FF44040ADF80400CD
:1030D0004FF48270ADF806000020ADF80800ADF89E
:1030E0000A000121ADF80C104902ADF80E101021B4
:1030F000ADF81010ADF812000720ADF814000A4C1E
:1031000001A9204600F022FA0121204600F008FA29
:103110000021204600F0F8F901220221204600F0AB
:103120000BFA06B010BD0000003C00402DE9F04154
:1031300000211B4E06F13804002056F8215001EB07
:103140004103C0F1170725FA07F2D20701D0F82290
:1031500000E0802200EBC30727447A70401CC0B215
:103160001828EED3491CC9B20E29E5D30D4C4FF4F3
:10317000A9712046FEF7A7FA01212046FEF7EAF9D9
:10318000094D2846FEF770FA0028FAD000212046A3
:10319000FEF7E0F92846BDE8F041FEF7CFB90000A0
:1031A000180400201C0402402000001010B5194C27
:1031B000A070E170217120280BD151B1022001F0E3
:1031C00095F9002001F044FAE078BDE8104001F0E4
:1031D000DDB9242810D023281BD10120E070022063
:1031E00001F084F901F072F9022001F031FAE0787F
:1031F000BDE8104001F0CAB900290AD0022001F050
:1032000075F9012001F024FAE078BDE8104001F0E2
:10321000BDB910BD000000202DE9F0476D4DA87824
:1032200000287CD00027AF7000F0F4F86A49B1F9AB
:103230000400C0F57A700FFA80FAC888A0F57A7099
:1032400006B20888A0F57A7004B20AF13B0077282C
:1032500000D2BA4606F13B00772800D2002604F1DE
:103260003B00772800D200244AEA060020430ED013
:10327000FEF7BEFFDFF864914FF0333801282CD001
:1032800002284DD004286DD0052847D180E0A889B8
:10329000EA89904213D2401CA881B1F90A00B0F526
:1032A000FA7F01DB012000E000202871FFF7CCF954
:1032B000FEF79EFF052802D10020FDF78BFDA989AE
:1032C000E88981422BD1401CA8810020FFF7BCF97E
:1032D000BDE8F04742A002F0F5B95046FDF732FADA
:1032E000C24652464B46FDF72CF9FDF762FA0FFA3B
:1032F00080F8A5F806803046FDF724FA52464B4682
:10330000FDF71FF9FDF755FA01B2298104EB84009E
:1033100002B26A8100234046FEF7EEFD57E057E017
:103320005046FDF70FFAC24652464B46FDF709F9E3
:10333000FDF73FFA0FFA80F8A5F806803046FDF752
:1033400001FA52464B46FDF7FCF8FDF732FA01B29E
:10335000298104EB840002B26A8100234046FEF713
:10336000CBFD34E05046FDF7EDF942464B46FDF704
:10337000E8F8FDF71EFA00B2E88039462F8104EB29
:103380004402520012B26A810023FEF7D7FB1EE00E
:103390005046FDF7D7F94FF06632164BFDF7D1F8DE
:1033A000FDF707FA00B2E880122194FBF1F109B2AF
:1033B00029813A466F810023FDF7C4FBB5F90A3035
:1033C000B5F90820B5F906100BA002F07BF9AF8122
:1033D000BDE8F087700000200E0300203333F33F78
:1033E000534255532053544F502054494D454F5547
:1033F000540A0000666602405342555320416B6DEB
:10340000204374726C3A25642C2025642C2025649A
:103410000A00000030B42F484178827841EA022146
:10342000C1F30A0300F119010B80D308C27843EA03
:103430004213C3F30A034B800379920942EA8303E0
:10344000427943EA8223C3F30A038B8053088279CB
:1034500043EAC213C3F30A03CB801309C27943EAD8
:103460000213C3F30A030B81037AD20942EA43032E
:10347000427A43EA4223C3F30A034B819308827AD8
:1034800043EA8213C3F30A038B81C37A520942EAE7
:10349000C302CA81104B0022DA70C07D4FF47A72E9
:1034A000440709D50120D8700A804A808A80CA80E2
:1034B00030BC0AA002F006B9000709D50320D87075
:1034C0000A804A808A80CA8030BC09A002F0FAB81B
:1034D00030BC7047F5020020700000205342555365
:1034E0005F5349474E414C5F4C4F5354000000001E
:1034F000534255535F5349474E414C5F4641494CF7
:103500005341464500000000002904D0018841F4E1
:10351000005101807047018821F4005101807047FB
:10352000002904D0018841F04001018070470188E2
:1035300021F0400101807047002A03D082880A43AD
:103540008280704782888A438280704730B50288C3
:1035500002F441530A884C88CD8822438C882C433E
:1035600022430C8922434C8922438C892243CC89F3
:1035700022431A430280828B22F400628283098AEA
:10358000018230BDAFF300800CB5002201920092A1
:103590002748016841F4803101604FF4A06301685D
:1035A00001F4003100910199491C0191009911B970
:1035B00001999942F3D10168890302D50121009153
:1035C00000E000920099012930D11A490A6842F0BE
:1035D00010020A600A6822F003020A600A6842F0D8
:1035E00002020A604168416041684160416841F4FB
:1035F00080614160416821F47C114160416841F47F
:10360000E8114160016841F0807101600168890141
:10361000FCD5416821F003014160416841F002019D
:1036200041604168C1F381010229FAD10CBD00005B
:1036300000100240002002400449002802D001206E
:10364000C88070470020C880704700000C00002030
:103650004FF0E021042804D0086920F0040008613C
:103660007047086940F004000861704710B50F48C2
:10367000016841F00101016041680D4A114041605B
:1036800001680C4A11400160016821F48021016049
:10369000416821F4FE0141604FF41F018160FFF792
:1036A00071FF05494FF00060086010BD0010024036
:1036B0000000FFF8FFFFF6FE08ED00E0014800788B
:1036C000704700004000002070B5048C24F0010415
:1036D0000484058B048C25F0F3054FF6FF7606EA8B
:1036E000031313432B43104A90420ED00F4A9042CB
:1036F0000BD0B0F1804F08D00D4A904205D00D4A52
:10370000904202D00C4A904205D124F002020A43B2
:1037100042F0010104E024F00A020A4342F00101F0
:103720000383018470BD0000002C0140003401407F
:103730000004004000080040000C0040F0B5048C7C
:1037400024F010040484068B048C4FF6FF7505EA00
:10375000011726F4734605EA0333334305EA0222D0
:103760001A43104B98420ED00F4B98420BD0B0F139
:10377000804F08D00D4B984205D00D4B984202D097
:103780000C4B984205D124F02001394341F010013F
:1037900004E024F0A0030B4343F0100102830184F2
:1037A000F0BD0000002C0140003401400004004046
:1037B00000080040000C0040F0B5048C24F4807434
:1037C0000484858B048C4FF6FF7707EA012625F0E9
:1037D000F30507EA031313432B43104A90420ED01C
:1037E0000F4A90420BD0B0F1804F08D00D4A904262
:1037F00005D00D4A904202D00C4A904205D124F4E3
:103800000071314341F4807104E024F420620A43E2
:1038100042F4807183830184F0BD0000002C0140DC
:10382000003401400004004000080040000C00404B
:10383000F0B5048C24F480540484868B048C4FF6F9
:10384000FF7505EA013726F4734605EA0222324382
:1038500005EA03331343104A90420ED00F4A9042B8
:103860000BD0B0F1804F08D00D4A904205D00D4AE0
:10387000904202D00C4A904205D124F400513943C1
:1038800041F4805104E024F402420A4342F480519E
:1038900083830184F0BD0000002C0140003401400E
:1038A0000004004000080040000C004010B5084C27
:1038B0000121204600F07DF9002807D00121204693
:1038C00000F039F8BDE81040FFF7F0B910BD000076
:1038D000001400401FB501212020FFF7DBFA47202C
:1038E000ADF804000920ADF80800104C01A92046ED
:1038F00000F000FB0121204600F01AF801221146D9
:10390000204600F0B1F937218DF8001001218DF823
:1039100001108DF802108DF803106846FEF7B8FF0D
:103920000121204600F00AF81FBD000000140040ED
:10393000C94301827047C94301827047002904D0FE
:10394000018841F0010101807047018821F00101E7
:1039500001807047002905D030F8441F41F4004130
:103960000180704730F8441FC1F30E010180704799
:1039700010B5734988420AD1C41401212046FFF7CB
:10398000B3FA2046BDE810400021FFF7ADBAB0F110
:10399000804F0CD06B49884213D101210220FFF7E0
:1039A00087FA0021BDE810400220FFF781BA01210B
:1039B0000846FFF77DFA0021BDE810400120FFF71F
:1039C00077BA6149884209D101210420FFF770FAD2
:1039D0000021BDE810400420FFF76ABA5B49884225
:1039E00009D101210820FFF763FA0021BDE810404A
:1039F0000820FFF75DBA5649884209D101211020FD
:103A0000FFF756FA0021BDE810401020FFF750BA2A
:103A10005049884209D101212020FFF749FA0021AD
:103A2000BDE810402020FFF743BA4B4988420AD135
:103A3000441401212046FFF757FA2046BDE8104004
:103A40000021FFF751BA454988420AD10121CC042F
:103A50002046FFF749FA2046BDE810400021FFF755
:103A600043BA3F4988420AD101210C052046FFF79D
:103A70003BFA2046BDE810400021FFF735BA39492E
:103A800088420AD101214C052046FFF72DFA204635
:103A9000BDE810400021FFF727BA3349884209D119
:103AA00001214020FFF704FA0021BDE8104040202A
:103AB000FFF7FEB92D49884209D101218020FFF787
:103AC000F7F90021BDE810408020FFF7F1B928493F
:103AD00088420AD1841501212046FFF7E9F92046E2
:103AE000BDE810400021FFF7E3B9224988420AD11E
:103AF00001210C042046FFF7F7F92046BDE81040ED
:103B00000021FFF7F1B91C4988420AD101214C0478
:103B10002046FFF7E9F92046BDE810400021FFF7F5
:103B2000E3B9164988420AD101218C042046FFF7E7
:103B3000DBF92046BDE810400021FFF7D5B910BDE4
:103B4000002C01400004004000080040000C004030
:103B5000001000400014004000340140004C0140BF
:103B6000005001400054014000180040001C00407B
:103B70000020004000400140004401400048014056
:103B800070B50589048B068C25F007050D434FF6AB
:103B9000FC410C4040F201110C4326F022064FF686
:103BA000FF7101EA0311114331430581048301844C
:103BB00070BD02460020138A0B4092890A40002BF8
:103BC00002D0002A00D001207047000070B50546E1
:103BD0000C461D48854209D01C48854206D0B5F1E7
:103BE000804F03D01A48854200D01A482088618847
:103BF000A288238960B1042813D008281AD0284647
:103C0000FFF716FEE1882846BDE8704000F065B970
:103C10002846FFF759FDE1882846BDE8704000F0CE
:103C200040B92846FFF78AFDE1882846BDE8704084
:103C300000F03FB92846FFF7BFFDE1882846BDE800
:103C4000704000F042B90000002C014000340140F7
:103C50000004004000080040002101804180012252
:103C60008280C18001817047002A03D082890A4383
:103C70008281704782898A438281704730B5028C85
:103C800022F001020284028C8388048B24F07004E9
:103C900024F003050C882C4322F002020D89154301
:103CA0004A882A43124DA8420BD0124DA84208D090
:103CB000114DA84205D0114DA84202D0104DA84286
:103CC0000FD122F008054A892A4322F004058A8888
:103CD0002A4323F4807323F400738D891D43CB8919
:103CE0002B4383800483C9888186028430BD000011
:103CF000002C0140003401400040014000440140DC
:103D00000048014070B5028C22F010020284028C3F
:103D10008388048B24F4E04424F440760D884FF625
:103D2000FF7404EA0525354322F020020E8904EAD7
:103D3000061616434A8804EA02123243114EB04274
:103D400002D0114EB04217D122F080024E8904EA0F
:103D50000616164326F040068A8804EA0212324309
:103D600023F4806323F400638E8904EA86061E43ED
:103D7000CB8904EA8303334383800583C9880187A1
:103D8000028470BD002C01400034014070B5028CEB
:103D900022F480720284028C8388848B24F0700465
:103DA00024F003040D88254322F400720E894FF697
:103DB000FF7404EA062616434A8804EA02223243C4
:103DC000114EB04202D0114EB04217D122F400661B
:103DD0004A8904EA0222324322F480668A8804EA8D
:103DE0000222324323F4805323F400538E8904EAE1
:103DF00006161E43CB8904EA03133343838085836D
:103E0000C9888187028470BD002C014000340140C4
:103E100070B5028C22F480520284058C8288838BD8
:103E200023F4E04323F440760C884FF6FF7303EA53
:103E30000424344325F400550E8903EA06362E4344
:103E40004D8803EA05353543094EB04202D0094E8C
:103E5000B04205D122F480468A8903EA82123243B5
:103E600082808483C988A0F84010058470BD00005A
:103E7000002C0140003401400021018041808180FC
:103E8000C180018141818181C181704781867047F4
:103E90000187704781877047A0F840107047818480
:103EA0007047028B22F00C020283028B0A430283CA
:103EB0007047028B22F440620283028B4FF6FF733D
:103EC00003EA01210A4302837047828B22F00C022D
:103ED0008283828B0A4382837047828B22F4406202
:103EE0008283828B4FF6FF7303EA01210A438283A8
:103EF0007047000030B502881B4C1C4DA0420DD00D
:103F0000A8420BD0B0F1804F08D0194B984205D091
:103F1000184B984202D0184B984203D122F07003FC
:103F20004A881A43154B984206D0154B984203D045
:103F300022F44073CA881A4302808A8882850A88DC
:103F40000285A0420AD0A84208D00E4A904205D06D
:103F50000D4A904202D00D4A904201D1097A018661
:103F60000121818230BD0000002C0140003401405D
:103F70000004004000080040000C00400010004019
:103F8000001400400040014000440140004801404E
:103F90004FF6FF71818000210180C1804180017254
:103FA000704700002DE9F04104460D4616461F46B5
:103FB000DFF82C8008214046FDF7F4FE2060042144
:103FC0004046FDF7EFFE286002214046FDF7EAFE7D
:103FD000306001214046FDF7E5FE3860BDE8F08124
:103FE0000010014008B501211020FEF76FFF0F20DF
:103FF000ADF8000048208DF8030003208DF8020082
:1040000069460248FDF74CFE08BD00000010014063
:104010001FB5012003900290019000906B4601AA09
:1040200002A903A8FFF7BEFF039808B1029909B9D6
:10403000009909B158B10EE000234FF47A62194695
:104040001846FEF767F85020FCF751FF1FBD019995
:1040500049B1009939B140F6B83270B10098A8B1B1
:104060000298E0B11EE000231D4A19461846FEF7EB
:1040700051F85020FCF73BFF1FBD0023194618469E
:10408000FEF748F80A20FCF732FF1FBD002319464F
:104090001846FEF73FF80A20FCF729FF1FBD0199DB
:1040A000012902D0012808D009E000234FF4FA6268
:1040B0001946C820FEF72EF81FBD019949B1019994
:1040C0000843F9D100231A461946C820FEF722F802
:1040D0001FBD0023034A1946C820FEF71BF81FBD69
:1040E00060F0FFFF30F8FFFFFFF792BF10B58CB014
:1040F00001210846FEF7C0FE104C2046FDF738FAB5
:104100000F4801900F480290102003900021049165
:1041100005918020069007910891099180010A90ED
:104120000B9101A92046FDF7B1FA05480122802133
:10413000001F00F00DF90CB010BD0000440002405B
:1041400004380140B303002010B5084C40F225515B
:10415000204600F00EF9002807D0204600F0A2F912
:10416000C0B2BDE8104001F06DBA10BD003801408A
:1041700070B586B0044601210420FEF7A7FE012198
:104180008803FEF7A3FE4FF40070ADF8140018206A
:104190008DF8170003258DF81650204E05A93046DE
:1041A000FDF77EFD3115ADF8141004218DF81710C0
:1041B00005A93046FDF774FD25218DF81010012169
:1041C0008DF811108DF812508DF8131004A8FEF719
:1041D0005FFB00940020ADF80400ADF80600ADF8D8
:1041E0000800ADF80C000C20ADF80A000C4C694634
:1041F000204600F0F9F8012240F22551204600F057
:10420000D8F80121204600F097F84021204600F020
:104210008FF8FFF76BFF06B070BD0000000801408B
:104220000038014010B5084C40F22551204600F0FE
:10423000A0F8002807D0204600F034F9C0B2BDE84D
:10424000104001F0FFB910BD0048004070B586B0C5
:10425000044601211120FEF739FE01218804FEF7F2
:1042600019FE4FF48061ADF8141018208DF8170076
:1042700003208DF816001D4E05A93046FDF710FDF0
:10428000F114ADF8141004258DF8175005A9304627
:10429000FDF706FD27218DF8001001218DF8011092
:1042A0008DF802508DF803106846FEF7F1FA01947C
:1042B0000020ADF80800ADF80A00ADF80C00ADF82C
:1042C00010000C20ADF80E00094C01A9204600F0AA
:1042D0008BF8012240F22551204600F06AF80121B6
:1042E000204600F029F806B070BD0000000C014027
:1042F0000048004070B505460C4603E0287800F001
:1043000005F86D1C641EA4B2F8D270BD70B50546E8
:10431000064C8021204600F025F80028F9D02946D7
:104320002046BDE8704000F0C1B8000000480040E1
:104330008A05C94301807047002904D0818941F46E
:10434000005181817047818921F40051818170473A
:10435000002A03D0828A0A4382827047828A8A4373
:10436000828270470246002012880A4200D0012053
:10437000704770B5002440F66A12C1F3421301F091
:104380001F05012606FA05F2012B0CD0022B0DD0D9
:10439000838A1340090A8E40008830400BB100B177
:1043A0000124204670BD83891340F3E7038A13403C
:1043B000F0E710B540F66A13C1F3421301F01F0491
:1043C0000121A140012B07D0022B07D014303AB1B4
:1043D00002680A43026010BD0C30F8E71030F6E7BF
:1043E00002688A43026010BD30B585B004460D46B0
:1043F000208A4CF6FF710840E98801432182A08998
:104400004EF6F3110840A9882A8911436A890243AC
:104410001143A181A08A4FF6FF410840A9890143B9
:10442000A1826846FEF76EFD1D48844201D10398C3
:1044300000E00298A189090408D500EBC00101EB56
:10444000001029684900B0FBF1F007E000EBC00163
:1044500001EB001029688900B0FBF1F06422B0FB89
:10446000F2F109010B096FF018056B4300EB8300B3
:10447000A3891D044FF0320307D503EBC000B0FB46
:10448000F2F000F00700084306E003EB0010B0FB79
:10449000F2F000F00F000843208105B030BD0000AD
:1044A000003801408088C0F308007047C1F308015C
:1044B0008180704710B50448FCF7DCFFBDE8104070
:1044C0000148FCF765BF00002001002010B5002363
:1044D000054C581CC0B200F07BF824F813005B1C9C
:1044E000062BF6DB10BD0000B8010020064A0021B3
:1044F0001170022806D10020921D1154401CC0B238
:104500000828FAD370470000180000202DE9FE4F5C
:1045100003468A461446FF25FF2607274FF0030867
:104520004FF02A09184600F053F8504481B24FF476
:104530007A60814201D9014602E0602900D26021FF
:10454000080A220A03F1340C84448C449444A444A1
:104550006FEA0C0C8DF800508DF801608DF8023078
:104560008DF803708DF804808DF805908DF80600A5
:104570008DF807108DF808208DF809408DF80AC0D5
:104580000B216846FFF7B6FEBDE8FE8F2DE9FC4122
:10459000FF22FF23042402253826022700F14001D0
:1045A000C9438DF800208DF801308DF802008DF898
:1045B00003408DF804508DF805608DF806708DF875
:1045C000071008216846FFF795FEBDE8FC81000052
:1045D000014600204A1E052A09D80A48052907D0A5
:1045E00006290AD030F81200A0F5FA6000B2704730
:1045F0000089A0F2CE5000B270474089A0F61C405E
:1046000000B27047320000202DE9FC41411EF9291B
:104610001CD8FF22FF23FE2404250326052700F5CE
:104620008571C9438DF800208DF801308DF8024066
:104630008DF803508DF804608DF805708DF8060034
:104640008DF8071008216846FFF754FEBDE8FC818D
:104650000149888070470000180000202DE9F041D2
:104660000446DDE906780D4616460120FFF7B0FF47
:104670002044174C20800220FFF7AAFF28446080C6
:104680000320FFF7A5FF3044A0800420FFF7A0FF20
:104690001844E0800520FFF79BFF38442081062066
:1046A000FFF796FF4044608100204FF47A635A1070
:1046B00034F81010994202D924F8102003E0602940
:1046C00001D224F81020401C0628F1DBBDE8F0815F
:1046D000260000202DE9FC410021002800D0012106
:1046E000FF22FF23FE2404250326282701F22D1094
:1046F000C0438DF800208DF801308DF802408DF810
:1047000003508DF804608DF805708DF806108DF853
:10471000070008216846FFF7EDFDBDE8FC810000B9
:104720002DE9F04F91B04FF0FF0AD346FE26222725
:104730004FF0830C4FF02A084FF0040951A106C92D
:10474000CDE90F1200210D910E910B910C910023D8
:10475000010AC2B200204D4C0DF1340E34F8105055
:104760002C0A0EF800400DF12C0E0EF800500DF141
:104770003C0E2B441EF800E0744423440B441344C5
:10478000DBB2401CC0B20628E5D3F01960444044B7
:1047900048441844C0438DF804A08DF805B08DF846
:1047A00006608DF807708DF808C08DF809808DF8C7
:1047B0000A909DF83C308DF80B309DF834308DF820
:1047C0000C309DF82C308DF80D308DF80E108DF8D2
:1047D0000F209DF83D308DF810309DF835308DF864
:1047E00011309DF82D308DF812308DF813108DF8A2
:1047F00014209DF83E308DF815309DF836308DF838
:1048000016309DF82E308DF817308DF818108DF871
:1048100019209DF83F308DF81A309DF837308DF80B
:104820001B309DF82F308DF81C308DF81D108DF841
:104830001E209DF840308DF81F309DF838308DF8DF
:1048400020309DF830308DF821308DF822108DF811
:1048500023209DF841308DF824309DF839308DF8B3
:1048600025309DF831308DF826308DF827108DF8E1
:1048700028208DF82900262101A8FFF73BFD11B063
:10488000BDE8F08F010203040506000026000020A9
:104890002DE9FE4305460C46E1782079A278CDE962
:1048A00000210290637822782946FCA000F00AFFDC
:1048B000202D79D00EDC162D77D2DFE805F0764575
:1048C000565E6D869E7676767676767676B8CDFC72
:1048D000FB7676FA602D69D022DC302D67D00DDCB6
:1048E000212D7DD0222D60D12478FCA0214600F01E
:1048F000E9FE2046BDE8FE43FFF7ECBE312D70D047
:10490000502D52D12578647829462246F6A000F031
:10491000D9FE03B021462846BDE8F043FEF746BC69
:10492000702D7DD0A02D7CD0A12D7BD0A22D3CD18F
:104930002478012C39D1FCF7D9FA03B02146BDE81F
:10494000F043EEA000F0BEBE2578647829462246EA
:10495000EFA000F0B7FE2846FEF76EFE5F2C24D1D4
:104960002846BDE8FE43FDF7E3B82078617840EAC9
:104970000120BDE8FE43FCF7E5BB257864782946B5
:104980002246E7A000F09EFE6D1E03B0E8B221466D
:10499000BDE8F043FEF722BA25786678A778E47878
:1049A0003B463246294603E0FAE0B5E04CE118E127
:1049B000E0A0009400F086FE03B023463A4631465C
:1049C0002846BDE8F043FEF71FBA25786678A77839
:1049D000E4783A46234631462846FEF747FB01E095
:1049E000F5E01BE13B4632462946D9A0009400F091
:1049F00069FEBDE8FE43FEF799BB2578667801F0B5
:104A0000F7FFA84200D11DB9FEF7D2FAFEF78EFBE0
:104A10003146284602F04AF8032D7DD1A07802E005
:104A20001CE125E135E1BDE8FE4302F037B820780E
:104A30005F2871D1002211460720FDF797FB052161
:104A4000002002F033F8FEF7B3FAFEF76FFBBDE883
:104A5000FE430020FCF776BB00200190029094F901
:104A6000007094F9016094F9025094F903402B46C8
:104A700032463946BBA0009400F024FE3846FBF7CE
:104A800061FE0422FBF73EFEFBF793FE07B2ADF892
:104A900004703046FBF756FE0422FBF733FEFBF7AB
:104AA00088FE06B2ADF806602846FBF74BFE0422EE
:104AB00002E05BE028E019E0FBF724FEFBF779FE5B
:104AC00005B2ADF808502046FBF73CFE0422FBF788
:104AD00019FEFBF76EFE03B2ADF80A3003B02A46AA
:104AE00031463846BDE8F043FDF758BD207861787F
:104AF000A27841EA0221642900D9642103B000228E
:104B0000BDE8F043FDF732BB207894F9016094F9D9
:104B1000027094F9035000E0B2E000F080083B46D8
:104B20003246214695A0009500F0CCFD46EA0700EC
:104B3000284304D0B8F1000F06D0012305E0BDE8FA
:104B4000FE430120FDF780BD002305EB85004000FA
:104B500002B207EB8700400001B206EB860003B00B
:104B60004000BDE8F04300B2FDF7D4BA2578647880
:104B70002946224688A000F0A5FD5F2C06D0062D10
:104B80007ED22846BDE8FE43FDF7F2BC062D77D263
:104B90002846FDF7EDFC2846BDE8FE43FCF7C9BFFB
:104BA00025786078A17840EA0126E078217940EA0A
:104BB00001242346324629467EA000F083FD03B03F
:104BC000224631462846BDE8F043FFF79FBC2478D3
:104BD0007EA0214600F076FD2046BDE8FE43FFF7AB
:104BE00013BD25786678A4783246234629467AA0F4
:104BF00000F068FD5F2C08D0012D41D103B0304694
:104C0000BDE8F0430021FCF77FB8012D38D103B097
:104C10003046BDE8F0430121FCF776B8257894F9D9
:104C200001402946224673A000F04CFD012D06D01C
:104C3000812D25D12046BDE8FE43FCF7DFB8204694
:104C4000BDE8FE43FCF7C6B8247870A0214600F00A
:104C500039FD2046BDE8FE43FCF7BEBB247870A0BA
:104C6000214600F02FFD2046BDE8FE43FCF76EB95B
:104C700024785F2C04D1FCF759FFFCF755FF00E0C6
:104C8000FBE021466BA000F01DFDBDE8FE43FCF7F4
:104C900055BB2578647829462246D3E043414E200F
:104CA000434D443A46554E433A3078253032582CDD
:104CB000205061726D3A3078253032582C3078258A
:104CC0003032582C3078253032582C30782530321C
:104CD000582C3078253032580A000000746F7271F9
:104CE00075653A25640A0000726571756573743DD7
:104CF0003078253032582C2025640A00746573748E
:104D000020636C656172207961773D25640A00003B
:104D10007265706F72743A25642C2025640A000055
:104D200070776D536572766F3A25642C2025640A7E
:104D300000000000616C6C20536572766F3A256448
:104D40002C2025642C2025642C2025640A000000DA
:104D50005247423A25642C2025642C2025642C20BF
:104D600025640A006D6F746F723D25642C202564E4
:104D70002C2025642C202564000000006D6F7469D0
:104D80006F6E3A203078253032582C2025642C2044
:104D900025642C2025640A005345545F4341525F2B
:104DA000545950453D3078253032582C20307825E4
:104DB0003032580075617274536572766F3A2564AB
:104DC0002C2025642C2025640A000000736574697A
:104DD000643A25640A000000616B6D2064656620FA
:104DE000616E676C653A25642C2025642C2025644F
:104DF0000A000000616B6D20737465657220616E3E
:104E0000676C653A25642C2025640A0063616E2076
:104E1000727820626565703D3078253032580A001E
:104E20006F6C656420666C61673D30782530325860
:104E30000A000000726573657420666C6173683DDA
:104E400025640A000EA000F03DFC5F2C15D1012D59
:104E500009D00020FCF76FFE6420FCF748F8BDE89D
:104E6000FE43FCF76BBA0120FCF765FE6420FCF7FB
:104E70003EF8BDE8FE43FCF761BABDE8FE830000E2
:104E800074657374206D6F64653D25642C20256402
:104E90000A0000002DE9F04F85B00446E078FE4D91
:104EA000142877D00DDC142875D2DFE800F0747F69
:104EB00093A1B4CAE07474747474747474EAE9E805
:104EC000E7E6242868D054DC212866D01ADC1528AF
:104ED0007DD020285FD125796079A17940EA01262B
:104EE000E079217A40EA0124234632462946EBA0A4
:104EF00000F0E8FB05B0224631462846BDE8F04FF9
:104F0000FFF704BB22287DD0232844D12079617982
:104F100040EA0128A079E17940EA0129207A617A02
:104F200040EA012AA07AE17A40EA0125207B617BF0
:104F300040EA0126A07BE17B40EA0127207C617CDE
:104F400040EA01248DE8E00053464A464146D9A094
:104F5000039400F0B7FB2B46524649464046CDE944
:104F60000067FFF77BFB05B02046BDE8F04FFFF779
:104F7000D7BB30287ED031287DD050287CD0A028C7
:104F800009D124795F2C06D1FCF7D0FDFCF7CCFDCC
:104F9000214603E015E293E097E280E2CDA000F025
:104FA00091FB05B0BDE8F04FFCF7C8B925796479ED
:104FB00029462246CBA000F085FB2846FEF73CFBA5
:104FC0005F2C7DD105B02846BDE8F04F00E04AE2F5
:104FD000FCF7AEBD2079617940EA01242146C5A0E5
:104FE00000F070FB05B02046BDE8F04FFCF7AAB812
:104FF0002579647929462246C1A000F063FBFBF7BE
:1050000079FF00E056E26D1E05B0E8B22146BDE82A
:10501000F04FFDF7E3BE25796679A779E4793B4641
:1050200032462946BBA0009400F04CFBFBF762FF20
:1050300005B023463A4631462846BDE8F04FFDF715
:10504000E3BE25796679A779E4793A462346314665
:105050002846FEF70BF83B4632462946B4A000949A
:1050600000F030FB05B0BDE8F04FFEF75FB82579E2
:10507000667907E044E260E279E2BDE08EE074E048
:105080002DE014E001F0B4FCA84200D11DB9FDF7F9
:105090008FFFFEF74BF83146284601F007FD032D40
:1050A0000ED1A07905B0BDE8F04F01F0F7BC207932
:1050B0005F2805D1002211460720FDF757F800E0D0
:1050C000E8E00521002001F0F1FCFDF771FFFEF79B
:1050D0002DF805B00020BDE8F04FFCF733B80020F4
:1050E0000390049094F9045094F9057094F90660C3
:1050F00094F9074033463A46294692A0009400F0BE
:10510000E1FA2846FBF71EFB0422FBF7FBFAFBF74C
:1051100050FB05B2ADF80C503846FBF713FB0422E8
:10512000FBF7F0FAFBF745FB07B2ADF80E7030461F
:10513000FBF708FB0422FBF7E5FAFBF73AFB06B2A4
:10514000ADF810602046FBF7FDFA0422FBF7DAFA0F
:10515000FBF72FFB03B2ADF8123005B032463946EB
:105160002846BDE8F04FFDF719BA25796679A07990
:10517000E17940EA012423463246294677A000F02F
:10518000A1FA05F0800008B1012200E0002205B07C
:1051900021463046BDE8F04FFCF7E8BF2179607941
:1051A000A27940EA022005B2E079227A40EA0220A0
:1051B00006B2607AA27A40EA022004B201F08007C7
:1051C00033462A466BA0009400F07CFA45EA0600BC
:1051D000204302D03FB1012306E005B00120BDE825
:1051E000F04FFDF731BA002305B02246314628467C
:1051F000BDE8F04FFCF78EBF2079617940EA0120CD
:10520000A179E27941EA0227217A627A41EA02260B
:1052100094F80A80FBF7A7FA00222B46FBF703FA63
:10522000FBF712FB81463846FBF79DFA00222B461E
:10523000FBF7F9F9FBF708FB83463046FBF793FAD7
:1052400000222B46FBF7EFF9FBF7FEFA82465046A9
:10525000FBF7CEFA04460D465846FBF7C9FA064658
:105260000F464846FBF7C4FACDE9035802460B4601
:1052700047A0CDE90067029400F024FA53465A464D
:1052800049460420FDF782FCB8F15F0F02D1534676
:105290005A468FE057E1000000408F4075617274FC
:1052A000536572766F3A25642C2025642C20256482
:1052B0000A00000061726D3A25642C2025642C20C0
:1052C00025642C2025642C2025642C2025642C208A
:1052D00025640A00726573657420666C6173683DAD
:1052E00025640A007265706F72743A25642C20255B
:1052F000640A0000626565703A25640A00000000D7
:1053000070776D536572766F3A25642C2025640A98
:1053100000000000616C6C20536572766F3A256462
:105320002C2025642C2025642C2025640A000000F4
:105330005247423A25642C2025642C2025642C20D9
:1053400025640A006D6F746F723D25642C202564FE
:105350002C2025642C202564000000006361725F0E
:1053600072756E3D3078253032582C2025642C2003
:10537000256400006D6F74696F6E3A2030782530B7
:1053800032582C2025642C2025642C2025640A000A
:105390007069643A252E32662C20252E32662C2028
:1053A000252E32662C20617267733A3078253032B0
:1053B000580A000005B04946BDE8F04F0420FCF74C
:1053C000B9BB2079617940EA0120A179E27941EA0B
:1053D0000227217A627A41EA022694F80A80FBF7D2
:1053E000C2F900222B46FBF71EF9FBF72DFA834684
:1053F0003846FBF7B8F900222B46FBF714F9FBF708
:1054000023FA82463046FBF7AEF900222B46FBF723
:105410000AF9FBF719FA81464846FBF7E9F9044611
:105420000D465046FBF7E4F906460F465846FBF793
:10543000DFF9CDE9035802460B4655A0CDE90067D8
:10544000029400F03FF94A4651465846FDF726FCC3
:10545000B8F15F0F77D105B04A4651465846BDE8CE
:10546000F04FFCF769BB257964792946224652A0A2
:1054700000F028F95F2C07D0062D64D205B028462D
:10548000BDE8F04FFDF774B8062D7ED22846FDF733
:105490006FF805B02846BDE8F04FFCF74ABB247909
:1054A0004CA0214600F00EF905B02046BDE8F04FB3
:1054B000FFF7AAB824794AA0214600F003F905B005
:1054C0002046BDE8F04FFFF705B9247947A02146F3
:1054D00000F0F8F85CB1062C57D80120FFF7B8F8B7
:1054E00005B0E1B2BDE8F04F2420FDF75FBEFCF748
:1054F0001CFB05B00021BDE8F04F2420FDF756BE8F
:1055000025796679A4793246234629463BA000F0E6
:10551000D9F85F2C08D0012D37D105B03046BDE851
:10552000F04F0021FBF7F0BB012D2ED105B0304626
:10553000BDE8F04F0121FBF7E7BB257994F9054061
:105540002946224600E020E033A000F0BBF8012D00
:1055500007D0812D19D105B02046BDE8F04FFBF7EB
:105560004DBC05B02046BDE8F04FFBF733BC2579B4
:105570006479294622462EA000F0A4F805B0214601
:105580002846BDE8F04FFDF711BE05B0BDE8F08F2D
:10559000594157205049443A252E32662C20252E59
:1055A00032662C20252E32662C20617267733A30C9
:1055B00078253032580A00005345545F4341525F0A
:1055C000545950453D3078253032582C20307825BC
:1055D0003032580073657469643A25640A0000002B
:1055E000746F727175653A25640A000061726D20EE
:1055F0006F66667365743A25640A0000616B6D20FE
:1056000064656620616E676C653A25642C202564AC
:105610002C2025640A000000616B6D2073746565A1
:105620007220616E676C653A25642C2025640A003F
:10563000726571756573743D3078253032582C2051
:1056400025640A00F0B51D4A01271D4B5178002939
:1056500013D00024012915D015462E78751CEDB203
:1056600002291AD0032907D198551570D07985429F
:1056700002D3977114705470F0BDFF28FCD11870DC
:105680005770F0BDFC2802D054701C70F0BDFC2097
:105690005870022050701070F0BD811CC9B2D171D9
:1056A000142905D3147054701C705C70D471F0BD53
:1056B0009855157003205070F0BD000000000020C8
:1056C000A40100200FB4054B10B503A9044A0298A9
:1056D00000F08EFC10BC5DF814FB0000316E000879
:1056E0009C0100200FB4084B10B504A902AA03982E
:1056F00000F07EFC044602A9002000F0FCFF2046DA
:1057000010BC5DF814FB0000F7660008490050EA81
:10571000C12018BF04204A0D18BF40F0010040F21C
:10572000FF72B2EB515F08BF40F00200012808BFD2
:10573000052070474100080218BF04200A0E18BF58
:1057400040F001004FF07F4232EA010108BF40F013
:105750000200012808BF0520704700002DE9F74F1F
:10576000144694B00021C4E902111599079121F063
:105770000045C9498D4206DC1599C4E9000117B0FE
:105780000020BDE8F08FC549DFF814A3A9423CDD35
:105790000799C44E0029C44FC44A1599534619DDD0
:1057A000FAF7C9FE554506D0C14AC24BFAF7C3FE07
:1057B000C4E900010AE04FF0D352BE4BFAF7BBFE3A
:1057C00032463B46FAF7B7FEC4E9000117B00120A4
:1057D000BDE8F08FFAF70EFE554506D0B44AB54B3A
:1057E000FAF708FEC4E900010AE04FF0D352B14BCA
:1057F000FAF700FE32463B46FAF7FCFDC4E9000129
:1058000017B04FF0FF30BDE8F08FAB49A9421599B2
:1058100078DB21F0004183468846A84AA84BFAF776
:1058200090FE0022A74BFAF7E5FDFAF7C2FF0990B8
:10583000FAF788FF06460F469C4A5346FAF781FE60
:1058400043465A46FAF77AFE80468A46984A994B6A
:1058500030463946FAF775FE2A0D01250B9242466D
:105860005346FAF76BFE032DC4E9000139D00B98BB
:10587000C1F30A51401A05EB45111139814230DA62
:105880009148C346784400EB0510CDF80CA00C906D
:10589000D0E9002330463946FAF753FE02460B465C
:1058A0000491069058460399FAF745FE80468A46C9
:1058B00002460B4658460399FAF73DFE049B069AAA
:1058C000FAF739FE83460C9803913946D0E9022352
:1058D0003046FAF736FE5A46039BFAF72CFE6D1C4B
:1058E000BDE707980028A2BF099817B0BDE8F08F60
:1058F000616881F000416160099817B04042BDE8DD
:10590000F08FFFE784461598C1F31301C0F30A50E6
:10591000A0F2F5304FEA601800F01F06C6F1200033
:10592000139000200690079041F4801E05206D46DC
:1059300076B1664A08EB00017A4452F8213002EB56
:105940008101B3404A68139922FA01F1194305E035
:105950005F4908EB0002794451F82210A1FB0E27A1
:10596000A1FB0C131A449A4234BF0123002303EB1A
:10597000070A05EB8003D3E901B70F448F4234BF18
:105980000121002193448B4411B1934502D903E0D6
:10599000934501D2012100E00021C3E901B7514440
:1059A00045F82010011EA0F10100C1DC0298059FFE
:1059B00000F10050800F12900298DDE9035680003C
:1059C000FAF7C0FE834628460D91FAF7CCFE6FF039
:1059D0001D02FAF797FECDE90E013046FAF7C3FE35
:1059E0006FF03D02FAF78EFE80468A463846FAF797
:1059F000BAFE6FF05D02FAF785FE0746424653464F
:105A00001191FAF7F7FCDDE90E23FAF7F3FC5A4699
:105A10000D9BFAF7EFFC00250E465A4628460D9BD3
:105A2000FAF789FDDDE90E23FAF785FD4246534674
:105A3000FAF781FD3A46119BFAF780FDDFF898A04E
:105A4000244A5346FAF77DFD07468846234A244BED
:105A500031462846FAF775FD3A464346FAF7CAFC3E
:105A6000074688464FF0A842534631462846FAF783
:105A700068FD3A464346FAF7BDFC159A12F0004F0E
:105A800004D0129A81F0004152421292C4E90001FE
:105A9000129817B0BDE8F08FFB21E93F7CD9024096
:105AA000FB21F93F7370032E8A19A33B0000405479
:105AB0003163621A61B4D03DFB21394183C8C96D9D
:105AC000305FE43F0000E03F70200000EC1F00006A
:105AD000CE1F0000182D4454FB21F93D3326A6119A
