:020000040800F2
:10000000800700209901000803070008FB0600088C
:10001000FF060008DF050008130D000800000000BF
:100020000000000000000000000000008D08000833
:10003000E30500080000000075070008A10900089A
:10004000B3010008B3010008B3010008B3010008C0
:10005000B3010008B3010008B3010008B3010008B0
:10006000B3010008B3010008B3010008B3010008A0
:10007000B3010008B3010008B3010008B301000890
:10008000B3010008B3010008B3010008B301000880
:10009000B3010008B3010008B3010008B301000870
:1000A000B3010008B3010008B3010008B301000860
:1000B000B3010008B3010008B3010008B301000850
:1000C000B3010008B3010008B3010008B301000840
:1000D000B3010008050A0008490A0008B301000836
:1000E000B3010008B3010008B301000800F002F8F2
:1000F00000F042F80AA090E8000C82448344AAF180
:100100000107DA4501D100F037F8AFF2090EBAE87D
:100110000F0013F0010F18BFFB1A43F0010318473B
:100120004C1000006C100000103A24BF78C878C151
:10013000FAD8520724BF30C830C144BF04680C60ED
:10014000704700000023002400250026103A28BF35
:1001500078C1FBD8520728BF30C148BF0B60704739
:10016000642900F0AB80732900F0FB810020704708
:100170001FB51FBD10B510BD00F0F7F91146FFF710
:10018000F7FF00F02FFF00F015FA03B4FFF7F2FFBE
:1001900003BC00F01DFA00000948804709480047E9
:1001A000FEE7FEE7FEE7FEE7FEE7FEE7FEE7FEE727
:1001B000FEE7FEE704480549054A064B7047000084
:1001C000A5090008ED00000880010020800700203C
:1001D00080030020800300200FB41CB5074B06AA43
:1001E0007B4469460090059800F091F9002069462B
:1001F00000F0A0F91CBC5DF814FB000051030000E6
:100200002DE9F0410E460446002020622046E168B8
:10021000884730B3252805D0D4E901219047206ACA
:10022000401CF2E7E168204600278847050018D007
:10023000A5F14100192802D820354FF40067324655
:10024000294620462760FFF78BFF40B1012804D0E4
:10025000F61D26F007060836D8E7361DD6E72846ED
:10026000DAE7206ABDE8F08170B50C460546012A40
:1002700005D02878800600D5EA69002302E0012332
:1002800005E05B1C934202D2E05C0028F9D1A8692A
:10029000E618C01AA861286A184428622846AFF3F5
:1002A000008004E0D5E9012114F8010B9047B44225
:1002B000F8D32846AFF3008070BD00002DE9F0416F
:1002C0000646002410687529314616A510D0AFF3F4
:1002D0000080002802DA404213A507E031688A074F
:1002E00001D512A502E0490704D511A5012401E0BA
:1002F000AFF3008000210A2206F1240709E0B0FBD9
:10030000F2FCB0FBF2F302FB1C00303078541846CC
:10031000491C0028F3D123462A463046BDE8F04167
:1003200000F097B8000000002D0000002B00000036
:100330002000000040EA0103024630B59B0710D1BF
:100340004FF0013400E008C208C91D1B9D4315EAA7
:10035000C41FF8D013F0FF0102F8011B0DD01B0AD7
:10036000F8E711F8013B002B02F8013B05D011F82A
:10037000013B002B02F8013BF3D130BD10B5431C0B
:1003800002E010F8011B71B18107FAD14FF0013280
:1003900002C88C1A8C4314EAC211F9D0C01A0A069A
:1003A00003D0C01E10BDC01A10BD0A0401D0801EAB
:1003B00010BD0902FCD0401E10BD4FF00002042900
:1003C000C0F0128010F0030C00F01B80CCF1040C84
:1003D000BCF1020F18BF00F8012BA8BF20F8022BB8
:1003E000A1EB0C0100F00DB85FEAC17C24BF00F85E
:1003F000012B00F8012B48BF00F8012B70474FF08C
:10040000000200B5134694469646203922BFA0E864
:100410000C50A0E80C50B1F12001BFF4F7AF090770
:1004200028BFA0E80C5048BF0CC05DF804EB890061
:1004300028BF40F8042B08BF704748BF20F8022BA4
:1004400011F0804F18BF00F8012B704770477047BC
:1004500070472DE9F0470D4699469246044600F153
:1004600024080168880604D5E06921F010012160A4
:1004700000E00120A84201DD471B00E00027A16940
:100480007A1902EB0900081AA0612078C00602D48C
:100490002046AFF30080002608E0D4E901211AF8D5
:1004A00006009047206A401C761C20624E45F4DB13
:1004B0002078C0060AD52046AFF3008006E0D4E9D4
:1004C000012130209047206A401C2062381EA7F18D
:1004D0000107F4DC07E0D4E9012118F80500904792
:1004E000206A401C2062281EA5F10105F3DC20468D
:1004F000AFF300802078000602D50220BDE8F08727
:100500000120FBE701694A1C02610878704700B5C9
:100510008FB0CDE901310021059105497944CDE93C
:10052000031011466846FFF76BFE0FB000BD0000D8
:10053000E5FFFFFF0A6802F8010B0A60704710B57B
:10054000436913B1AFF3008001E0FFF78DFE012096
:1005500010BD127800F124010A7000224A700122B5
:10056000EDE711684FF0FF32E9E7754600F02CF82F
:10057000AE4605006946534620F00700854618B090
:1005800020B5FFF717FEBDE820404FF000064FF002
:1005900000074FF000084FF0000B21F00701AC46B8
:1005A000ACE8C009ACE8C009ACE8C009ACE8C009D7
:1005B0008D46704710B50446AFF300802046BDE875
:1005C0001040FFF7E2BD0000004870471C0100200A
:1005D00001491820ABBEFEE726000200704700BFAD
:1005E000FEE770472DE9F041024600250026002075
:1005F00000230024002791F803C00CF00F0591F8A8
:1006000003C00CF0100CBCF1000F03D091F802C035
:100610004CEA050591F800C0BCF1000F31D0146818
:1006200000202BE04FF0010C0CFA00F3B1F800C0F1
:100630000CEA03069E4220D183004FF00F0C0CFA07
:1006400003F7BC4305FA03FC4CEA040491F803C029
:10065000BCF1280F06D14FF0010C0CFA00FCC2F8D7
:1006600014C00AE091F803C0BCF1480F05D14FF067
:10067000010C0CFA00FCC2F810C0401C0828D1D3B1
:100680001460B1F800C0BCF1FF0F34DD54680020E5
:100690002EE000F1080C4FF0010808FA0CF3B1F855
:1006A00000C00CEA03069E4221D183004FF00F0CDC
:1006B0000CFA03F7BC4305FA03FC4CEA040491F876
:1006C00003C0BCF1280F05D100F1080C08FA0CF8A2
:1006D000C2F8148091F803C0BCF1480F07D100F1B3
:1006E000080C4FF0010808FA0CF8C2F81080401C02
:1006F0000828CED35460BDE8F08100BFFEE700BFFC
:10070000FEE7704770B5002100230F22C47804B3C0
:10071000154C246804F4E064C4F5E064210AC1F1D6
:100720000403CA40447804FA03F184781440214356
:1007300009010E4C0678A155047804F01F05012428
:10074000AC4005786D11AD0005F1E025C5F800411C
:1007500009E0047804F01F050124AC40044D06783C
:10076000761145F8264070BD0CED00E000E400E095
:1007700080E100E07047000029B1064AD2690243D7
:10078000044BDA6104E0034AD2698243014BDA6127
:10079000704700000010024029B1064A92690243E6
:1007A000044B9A6104E0034A92698243014B9A61C7
:1007B000704700000010024030B5002100220024E4
:1007C00000232D4D6D6805F00C0121B1042905D0E1
:1007D000082923D105E0294D056022E0274D056059
:1007E0001FE0254D6D6805F47012234D6D6805F40A
:1007F0008034022505EB92421CB9214D554305601A
:100800000BE01D4D6D6805F400351DB11C4D5543C1
:10081000056002E0194D5543056002E0174D056083
:1008200000BF00BF144D6D6805F0F0010909154DBA
:100830006B5C0568DD4045600F4D6D6805F4E06157
:10084000090A104D6B5C4568DD4085600A4D6D6896
:1008500005F46051C90A0B4D6B5C4568DD40C5600D
:10086000054D6D6805F44041890B074D6B5CC5680B
:10087000B5FBF3F5056130BD0010024000127A00AF
:1008800000093D001400002024000020704710B52E
:1008900000F002F810BD00000CB50020019000909F
:1008A0003348006840F480303149086000BF304868
:1008B000006800F4003000900198401C01900098FE
:1008C00018B90198B0F5A06FF1D12948006800F47B
:1008D000003010B10120009001E00020009000984D
:1008E000012843D12348006840F0100021490860E6
:1008F0000846006820F0030008600846006840F0E1
:10090000020008601A484068194948600846406873
:1009100048600846406840F4806048600846406887
:1009200020F47C1048600846406840F4E8104860B5
:100930000846006840F08070086000BF0C480068FE
:1009400000F000700028F9D00948406820F003004A
:10095000074948600846406840F00200486000BF10
:100960000348406800F00C000828F9D10CBD0000D5
:100970000010024000200240042808D14FF0E0217E
:10098000096941F004014FF0E022116107E04FF0E6
:10099000E021096921F004014FF0E0221161704764
:1009A0007047000010B51348006840F0010011497D
:1009B000086008464068104908400E4948600846EB
:1009C00000680E4908400B4908600846006820F49A
:1009D000802008600846406820F4FE0048604FF41C
:1009E0001F008860FFF753FF4FF000600449086064
:1009F00010BD0000001002400000FFF8FFFFF6FEEF
:100A000008ED00E010B5002440F22551054800F043
:100A1000BCF830B1034800F073F9C4B2204600F0CE
:100A200003F810BD0038014010B5044600BF802116
:100A3000044800F09DF80028F9D02146014800F054
:100A400064F910BD0038014010B540F22551064848
:100A500000F09BF830B1044800F052F9C4B22046CF
:100A600000F016FB10BD00000044004070B50446C5
:100A70000D4603E0207800F007F8641C281EA5F15D
:100A800001018DB2F6D170BD10B5044600BF8021C2
:100A9000044800F06DF80028F9D02146014800F024
:100AA00034F910BD0044004010B586B00446012161
:100AB0004804FFF761FE01210420FFF76DFE0420CA
:100AC000ADF8140018208DF8170003208DF81600DB
:100AD00005A91F48FFF786FD0820ADF81400042083
:100AE0008DF8170005A91A48FFF77CFD0194002036
:100AF000ADF80800ADF80A00ADF80C00ADF8100034
:100B00000C20ADF80E0001A9124800F08DF800226B
:100B100040F227710F4800F062F8012240F225519F
:100B20000C4800F05CF801210A4800F015F8262076
:100B30008DF8000001208DF8010004208DF80200DE
:100B400001208DF803006846FFF7DCFD06B010BDFC
:100B5000000801400044004021B1828942F4005263
:100B6000828104E082894DF6FF731A4082817047CA
:100B700002460020B1F5007F00D100BF13880B4072
:100B80000BB1012000E00020704770B50246002440
:100B900000230025002040F66A16B14200D100BFB4
:100BA000C1F3421501F01F03012606FA03F3012DDC
:100BB00002D19689334006E0022D02D1168A3340D5
:100BC00001E0968A33400C12012606FA04F41688D6
:100BD000344013B10CB1012000E0002070BDF0B52D
:100BE0000346002400260025002040F66A17B9427B
:100BF00000D100BF1846C1F3421401F01F060127BF
:100C000007FA06F5012C01D10C3004E0022C01D1C9
:100C1000103000E014301AB107682F43076002E07B
:100C20000768AF430760F0BD2DE9F04786B0054681
:100C30000E460024A24600BFA1460027B08900B19D
:100C400000BF2F462C8A4CF6FF700440F088044306
:100C50002C82AC894EF6F3100440B08831890843E9
:100C6000718908430443AC81AC8A4FF6FF400440CD
:100C7000B0890443AC8201A8FFF79EFD1F4887425C
:100C800002D1DDF810A001E0DDF80CA0A88900F485
:100C9000004040B10AEBCA0000EB0A10316849007D
:100CA000B0FBF1F807E00AEBCA0000EB0A1031686C
:100CB0008900B0FBF1F86420B8FBF0F004012009D2
:100CC000642101FB1089A88900F4004040B1322062
:100CD00000EBC900B0FBF1F000F00700044308E0AE
:100CE000322000EB09106421B0FBF1F000F00F009E
:100CF00004432C8106B0BDE8F087000000380140B5
:100D000001468888C0F308007047C1F3080282805A
:100D1000704700BFFEE700002DE9F04786B081462E
:100D2000142101A8FFF76BFB002440F2E73AB9F168
:100D30000C0F21D2DFE809F0BC0621224807087415
:100D40007591B7B800BF00BF64480078634949781F
:100D500040EA0125614880786049C97840EA012667
:100D60005E4800795D49497940EA01275B4880790E
:100D70005A49C97940EA01289AE000BF57480078EB
:100D80005649497840EA0125544880785349C97842
:100D900040EA0126514800795049497940EA012743
:100DA0004E4880794D49C97940EA012806E04B4810
:100DB0000830005D01A90855601CC4B247480830DE
:100DC000005D0028F3D173E0444800784349497836
:100DD00040EA0125414880784049C97840EA012627
:100DE0003E4800793D49497940EA01273B488079EE
:100DF0003A49C97940EA01283848407A3749097A9E
:100E000040EA012A06E035480A30005D01A908558C
:100E1000601CC4B231480A30005D0028F3D147E0BD
:100E200000BF2E4800782D49497840EA01252B481B
:100E300080782A49C97840EA01262848007927495C
:100E4000497940EA0127254880792449C97940EA4F
:100E50000128224890F808A02AE0204800781F497D
:100E6000497840EA01251D4880781C49C97840EA44
:100E700001261A4800791949497940EA012717489B
:100E800080791649C97940EA012806E013480830FC
:100E9000005D01A90855601CC4B210480830005D0F
:100EA0000028F3D104E000BF0C4890F800A000BF78
:100EB00000BF0B4880F80A90058046808780A0F824
:100EC0000680A0F808A001A90B30FFF733FA322101
:100ED0000248FFF772FA06B0BDE8F087EA0000208A
:100EE000660000202DE9F0414FF000081A484578CF
:100EF000C67800271948007819490978884204D033
:100F0000002017490870BDE8F081002414E0201D7E
:100F10001149085C2C2802D10FB901270AE0201DD5
:100F20000D490A5C4046411C01F0FF080D490A5476
:100F3000002700BF601CC4B2B442E8DB00200A49AD
:100F400008800649087064210348FFF736FA2846EE
:100F5000FFF7E2FE00BFD6E7860000202D0000204C
:100F600032000020EA0000202E00002010B50E48BC
:100F700000680E49B0FBF1F0C4B26FF00400FFF757
:100F8000FBFCE11704EB5171C910094A11701046BE
:100F9000007800EB4001C1EBC0104FF6FF7101EA91
:100FA000C0000449088010BD0000002040420F002E
:100FB000280000202A00002008B501211020FFF79A
:100FC000EBFB4FF40050ADF8000010208DF803004B
:100FD00003208DF8020069460148FFF703FB08BDB6
:100FE000001001401CB5FFF7DDFCFFF7BFFFFFF766
:100FF000E3FF4FF4E130FFF757FD00201849086088
:101000002DE01848807A002829D01648807A0328D5
:1010100025D11448C08813498988CDE900101148AA
:101020004388028810A11648FFF7D6F81448FFF746
:10103000A5F984B221461248FFF718FD094A0B3280
:1010400010A10F48FFF7C8F80D48FFF797F984B2D1
:1010500021460B48FFF70AFD002002498872D0E7BD
:10106000B401224266000020783D25642C793D259C
:10107000642C773D25642C683D25640D0A00000032
:1010800034000020737472203D2025730D0A000087
:1010900010B50446242C02D101202D490870232CC0
:1010A00030D12C4800782C49097888422AD1002078
:1010B000274908702949087029490870264800788E
:1010C000401E2849085C28490988081A26490880D2
:1010D0000888C11700EB11610912A0EB0121224A17
:1010E00011801D480078401E1E49085C1146098881
:1010F000884202D1FFF7F6FE04E00020164908708E
:10110000194908801248007801281FD1242C06D1E3
:101110001248007818B901201049087016E00E48EE
:1011200001780078401C0C4A10700E4844540E4858
:10113000008820440C4908800948007830B90948E3
:1011400000780449087001200549087010BD0000AE
:101150002C000020320000202D0000203000002054
:1011600031000020860000202E0000208C11000895
:10117000000000203400000028010008C011000811
:10118000340000204C0700004401000800A24A047B
:101190000000000000000000010203040607080927
:1011A000000000000102030401020304060708090D
:1011B000020406080000000000000000000000001B
:040000050800019955
:00000001FF
