:020000040800F2
:1000000088B00024A1030008DF880008CB7F000827
:10001000DD880008B50A000849C10008000000009A
:10002000000000000000000000000000E1020008E5
:10003000551D0008000000003D030008C99200089B
:10004000BB030008BB030008BB030008BB03000898
:10005000BB030008BB030008BB030008BB03000888
:10006000BB030008BB030008BB030008BD16000863
:10007000C9160008D5160008E1160008ED1600089C
:10008000F9160008BB030008BB030008A51E000802
:10009000111F0008BB030008BB030008BB030008D6
:1000A000BB030008BB030008BB030008BB03000838
:1000B00051940008BB030008BB030008BB03000801
:1000C000BB030008BB030008BB030008BB03000818
:1000D0007D9100088DA20008BB030008BB03000847
:1000E000BB030008BB03000800000000BB030008BE
:1000F000BB030008BB030008BB030008BB030008E8
:10010000BB030008BB030008BB030008BB030008D7
:10011000BB0300089D980008BB030008BB03000850
:10012000BB030008BB030008BB030008BB030008B7
:10013000BB030008BB030008BB030008BB030008A7
:1001400000000000000000000000000000000000AF
:10015000BB030008BB030008BB030008BB03000887
:10016000BB030008BB030008BB030008BB03000877
:10017000BB030008E1880008BB0300080000000082
:10018000BB030008BB030008A9980008BB030008D4
:10019000BB030008BB030008BB030008BB03000847
:1001A000BB030008BB030008BB03000800000000FD
:1001B000BB030008BB030008BB030008BB03000827
:1001C000BB030008BB0300080000000000000000A3
:1001D0000000000000000000BB0300080000000059
:1001E000000000000000000000000000000000000F
:1001F0000000000000000000BB030008BB03000873
:10020000BB030008BB03000800000000BB0300089C
:10021000BB030008BB030008BB030008BB030008C6
:10022000BB03000800000000BB0300080000000042
:10023000BB030008BB03000800000000BB0300086C
:10024000BB030008BB030008BB030008BB03000896
:10025000BB030008BB030008BB030008BB03000886
:10026000BB030008BB030008BB030008BB03000876
:10027000BB030008BB030008BB030008000000002C
:10028000BB030008BB030008BB030008BB03000856
:1002900000000000BB030008BB03000800000000D2
:1002A00000000000BB030008BB030008BB030008FC
:1002B000BB030008BB030008BB0300081D1F0008A8
:1002C000BB030008BB030008BB030008DFF80CD029
:1002D00000F0ECF8004800473DCE000888B000244C
:1002E0002C4B19680868B0E8F04F80F30988BFF319
:1002F0006F8F4FF0000080F31188704700000000FE
:1003000008480068006880F308884FF0000080F318
:10031000148862B661B6BFF34F8FBFF36F8F00DFF3
:1003200000BF00BF08ED00E0DFF80C00016841F4F9
:1003300070010160704700BF88ED00E0EFF30980B5
:10034000BFF36F8F134B1A681EF0100F08BF20ED1C
:10035000108A20E9F04F106009B44FF0500080F38C
:100360001188BFF34F8FBFF36F8F0DF02FFA4FF04F
:10037000000080F3118809BC19680868B0E8F04FE4
:100380001EF0100F08BFB0EC108A80F30988BFF38D
:100390006F8F704770000024EFF3058070470000F6
:1003A0000648804706480047FEE7FEE7FEE7FEE70F
:1003B000FEE7FEE7FEE7FEE7FEE7FEE791930008B3
:1003C000CD0200082DE9F05F0546002092469B46CD
:1003D00088460646814640241BE02846414647465B
:1003E000224600F053F853465A46C01A914110D3A2
:1003F00011461846224600F03AF82D1A67EB01081C
:100400004F4622460120002100F031F817EB000989
:100410004E41201EA4F10104DFDC484631462A4645
:100420004346BDE8F09F40EA01039B0703D009E083
:1004300008C9121F08C0042AFAD203E011F8013BD0
:1004400000F8013B521EF9D27047D2B201E000F829
:10045000012B491EFBD270470022F6E710B5134668
:100460000A4604461946FFF7F0FF204610BD202A31
:1004700004DB203A00FA02F1002070479140C2F1FB
:10048000200320FA03F3194390407047202A04DB2D
:10049000203A21FA02F00021704721FA02F3D040FD
:1004A000C2F120029140084319467047064C074D9F
:1004B00006E0E06840F0010394E807009847103434
:1004C000AC42F6D3FFF706FF40E4000860E4000802
:1004D00070B58C1810F8015B15F0070301D110F806
:1004E000013B2A1106D110F8012B03E010F8016B33
:1004F00001F8016B5B1EF9D12B0705D40023521EB6
:100500000DD401F8013BFAE710F8013BCB1A921C1D
:1005100003E013F8015B01F8015B521EF9D5A1421B
:10052000D8D3002070BD00009FED201AB5EE002A40
:1005300000EE012A9FED1E1ABDEEC20AB5EEC02ADA
:10054000F1EE10FA10EE100AB8BF013800EE100AF2
:100550000020B8EEC00A32EE400A9FED162A20EEC7
:10056000010ABCEEC01A11EE101A30EE021AB0EBFE
:10057000512F18BF002102EE101A4DF63C4000FE2C
:10058000010AC0F60000B8EE422A00EB810090EDAF
:10059000011A30EE420AB7EE002A32EE402A20EE6F
:1005A000010A90ED001A02EE010A704783F9223E1B
:1005B00000000044000000C49FED1F1A20EE010A55
:1005C0009FED1F2ABDEEC01AB5EEC00AF1EE10FA7B
:1005D00011EE100AB8BF013801EE100A0020B8EE83
:1005E000C11A30EE410A9FED151A20EE010ABCEE49
:1005F000C01A11EE101A30EE021AB0EB512F18BFCC
:10060000002102EE101A4DF63C4000FE010AC0F631
:100610000000B8EE422A00EB810090ED011A30EEA6
:10062000420AB7EE002A32EE402A20EE010A90ED8F
:10063000001A02EE010A704783F9223E00000044CE
:10064000000000C401220248114603F0BBBE0000B6
:100650000008025800220248012103F0B3BE000046
:100660000008025801220248082103F0ABBE000036
:100670000008025800220248082103F0A3BE00002F
:100680000008025870B50446FFF7E4FF922000F01E
:1006900081F985490622122000F05EF9FFF7D2FFAA
:1006A000814E814D1C3EF078C0B3687829780002F5
:1006B00000B2084300EE100A96ED031AD4ED0C0ABE
:1006C000B8EEC00A20EE011A94ED080A51EE000AB5
:1006D000C4ED000AE878A978000200B2084300EEF1
:1006E000900A94ED0D1AF8EEE01AD6ED030A61EEC9
:1006F000A01A11EE801A84ED011A68792979000296
:1007000000B20843708101EE100AB8EEC11A61EE22
:10071000200A20EE800A84ED020A34E0FFE76878C0
:100720002978000200B2084300EE100AD6ED030A51
:10073000B8EEC00A60EE200A94ED080A60EE800A66
:10074000C4ED000AE878A978000200B2084300EE80
:10075000900AB8EEE01AD6ED030A21EE201A21EE37
:10076000001A84ED011A68792979000200B2084361
:10077000708101EE100AB8EEC11A61EE200A20EE77
:10078000800A84ED020AFFF775FF4749082200201E
:1007900000F0E2F8FFF766FF28780F285DD1F078C7
:1007A00080B3E878A978000200B2084300EE100A8E
:1007B000D4ED090AB8EEC01A96ED040A51EE000A0B
:1007C000C4ED030A68792979000200B2084300EEFB
:1007D000900A94ED0A1AF8EEE00A10EE801A84ED01
:1007E000041AE879A979000200B20843708100EE8A
:1007F000900A94ED0B1AF8EEE00A10EE801A84EDE0
:10080000051A2AE0FFE7E878A978000200B2084359
:1008100000EE100AF8EEC00A96ED040A60EE800AB7
:10082000C4ED030A68792979000200B2084300EE9A
:10083000900AF8EEE00A60EE800AC4ED040AE87956
:10084000A979000200B20843708100EE900AF8EE28
:10085000E00A20EE800A84ED050AFFF7FBFEA220E5
:1008600000F098F810490222222000F075F8FFF7F6
:10087000E9FE28786978C00040EA51107081B0F52F
:10088000806F02DBA0F500607081B6F90A00B4EE5B
:10089000001A00EE100AF8EEC00AB3EE070A00EEE6
:1008A000810A84ED070A70BD4000002470B50D4632
:1008B0001D49086000201D4CA0700BF0ADFEA17812
:1008C0000843A0700BF03CFFA1780843A0701DB155
:1008D000174800F017F924E015489FED160A80ED3F
:1008E000090A9FED150A80ED0A0A9FED140A80EDB2
:1008F0000B0A9FED130A80ED0C0A9FED120A80EDA2
:100900000D0A9FED110A80ED0E0A9FED100A80ED91
:100910000F0A9FED0F0A80ED080A9FED0E0A80ED89
:10092000060AA07870BD00006C000024240000249A
:100930005C0B0024F0A032BAB9F3AFBAB1EFBBBA86
:100940000B6F993E2A98933D000000007A841D4168
:100950000F187F3F0000204270B50D46144640F04E
:10096000800000F017F806E0552000F013F805F8B5
:10097000010B641EE4B2002CF6D170BD10B50C461C
:1009800040F0800000F006F8552000F003F82070D9
:1009900010BD000001B582B04FF47A7001230090C1
:1009A00001AA044802A9006806F0B2F99DF8040003
:1009B0000EBD00006C00002410B50C46FFF7EAFFE6
:1009C0002046BDE81040FFF7E5BFB6EE002A92EDE5
:1009D000020AB0EE421AD2ED030A00EE401AD0ED40
:1009E000001AD0ED013A00EEE01A21EE213A92ED24
:1009F000011AD2ED001A61EE002A41EEE02A61EE02
:100A0000200A41EE800A02EEA33A90ED020AF0EECF
:100A1000002A00EE803A23EE220A81ED000A92EDD0
:100A2000010AD2ED021A92ED001AD2ED030A20EE6D
:100A3000213AD0ED003A90ED014A01EE203A23EE42
:100A4000233AF0EE423A40EE403A40EEE03A61EEB0
:100A5000A00A41EE400A03EE843A90ED020A00EE4D
:100A6000803A23EE220A81ED010AD2ED010AD2ED8D
:100A7000031A92ED020A92ED001A20EEA13A60EEFE
:100A8000211AD0ED003A00EEE02A01EE403A41EEA4
:100A9000201A90ED011A00EE402A23EE233A90ED41
:100AA000020A01EE813A02EE003A23EE220A81EDBB
:100AB000020A7047FEE704284FF00000704700204C
:100AC0007047000010B505490022054809F0F0FD07
:100AD0000449034809F0DEFD002010BD8099002480
:100AE000A48C00248091002410B50146034809F02D
:100AF000D1FD024809F0A2FD002010BDA48C002405
:100B0000002070472DE9F04F04462DED048B89B08D
:100B100000200790089001F08FF8FE4E86ED050A40
:100B2000DFF8F49304AFDFF8F4A30DF104084FF0FD
:100B30007C5BDFEDFB9A01F07FF8D6ED050AF94901
:100B400030EE600A10EE100A884214DD9FEDF60ABE
:100B500084ED090A9FEDF50A84ED0A0A9FEDF40A77
:100B600084ED0B0A9FEDF30A84ED0F0A9FEDF20A64
:100B700084ED060A87E19FEDF10A01F01FF89FED71
:100B8000F00A84ED0F0A84ED090A84ED0A0A84ED67
:100B90000B0A0025F8E0FFF75DFD9220FFF7FAFE53
:100BA0000622122007A9FFF7D7FEFFF74BFD9DF89D
:100BB0001D009DF81C10000200B2084300EE100A50
:100BC000D6ED030AB8EEC00A20EE201A84ED001A12
:100BD0009DF81F009DF81E10000200B2084300EEB1
:100BE000100AD6ED030AB8EEC00A20EE200A84ED02
:100BF000010A9DF821009DF82010000200B2084370
:100C000001EE900AF8EEE11A61EEA00AC4ED020AC4
:100C100021EE011A00EE001A00EEA01AB0EE410A11
:100C20000BF0B1FCB0EE408A94ED0F0A30EE080AEA
:100C300084ED0F0AFFF71EFD0822002007A9FFF729
:100C40008BFEFFF70FFD9DF81C000F2840D19DF88B
:100C50001F009DF81E10000200B2084300EE100AAB
:100C6000F8EEC00A96ED040A60EE800AC4ED030AAD
:100C700094ED091A71EE200AC4ED090A9DF82100CD
:100C80009DF82010000200B2084300EE900AF8EE32
:100C9000E00A60EE800AC4ED040A94ED0A1A71EECF
:100CA000200AC4ED0A0A9DF823009DF822100002D4
:100CB00000B2084300EE900AF8EEE00A20EE800A47
:100CC00084ED050AD4ED0B0A30EE800A84ED0B0AA0
:100CD000002D7DD0B4EEE88AF1EE10FA01DDF0EEE1
:100CE000488AB4EEC98AF1EE10FA01D2B0EE489A01
:100CF000002004EB800191ED030A07EB8001D1EDA8
:100D0000000AB4EEE00AF1EE10FA01DD81ED000A0E
:100D100008EB8001D1ED000AB4EEE00AF1EE10FA22
:100D200001D281ED000A401CC0B20328E1D338EEA5
:100D3000C90A86ED060A002007EB8001D1ED000A02
:100D400008EB800191ED001A09EB800170EEC10AF9
:100D5000C1ED000A401CC0B20328EDD310EE100A0A
:100D6000584515DCD9F80000504511DCD9F80400CD
:100D700050450DDCD9F80800504509DCB0EE690A91
:100D800000F01CFF6D1CADB2F0888542FFF403AF8C
:100D9000F288D4ED0F0A00EE102AB8EE400A80EE79
:100DA000801A84ED0F1A002000EE102A04EB800157
:100DB000B8EE400AD1ED090A80EE801A81ED091AD9
:100DC000401CC0B20328EFD3FFF744FCA22000E090
:100DD00063E0FFF7DFFD0222222007A9FFF7BCFD39
:100DE000FFF730FC9DF81C009DF81D10C00040EA84
:100DF0005110B0F5806F02DBA0F5006000B200EE8C
:100E0000100AB4EE001AF8EEC00AB3EE070A00EEBC
:100E1000810A84ED060AB088401CB080B06958454C
:100E20003FF789AE94ED0F0ADFED460A30EE600A17
:100E30000BF0CEFE10EE100A5845F1DCD9F8000098
:100E40005045EDDCD9F804005045E9DCD9F808003C
:100E50005045E5DC94ED090A0BF0BAFE10EE100ADD
:100E6000394DA842DCDC94ED0A0A0BF0B1FE10EE1D
:100E7000100AA842D4DC94ED0B0A0BF0A9FE10EE88
:100E8000100AA842CCDC94ED0F0ADFED300A80EEA8
:100E9000801A84ED081A00259EE0F0EE488AB0EE34
:100EA000489A002004EB800191ED030A07EB8001D2
:100EB00081ED000A08EB800181ED000A401CC0B200
:100EC0000328EFD333E7FFF7C5FB9220FFF762FD5E
:100ED0000622122007A9FFF73FFDFFF7B3FB9DF89D
:100EE0001D009DF81C10000200B2084300EE100A1D
:100EF000D6ED030AB8EEC00A60EE200A94ED080AA7
:100F000060EE800AC4ED000A94ED0C1ADFED101AB1
:100F100020E0000024000024500B00249A99193E80
:100F20006F12033A00002041F0A032BAB9F3AFBA11
:100F3000B1EFBBBA7A841D41000020420AD7A33B1F
:100F400000000000CDCC1C410AD7233CC3F51C4156
:100F5000CDCC4C3F21EE211A9FED242A00EE821ABF
:100F600084ED0C1A9DF81F009DF81E10000200B2BF
:100F7000084300EE900AB8EEE01AD6ED030A21EE1F
:100F8000201A21EE001A84ED011AD4ED0D2A62EE2A
:100F9000A12A41EE022AC4ED0D2A9DF821009DF8F8
:100FA0002010000200B2084301EE100AB8EEC11A88
:100FB00061EE200A20EE800A84ED020AD4ED0E0ACA
:100FC00060EEA10A40EE020AC4ED0E0AB0EE690A14
:100FD00000F0F4FD6D1CADB230898542FFF473AFB3
:100FE00009B0BDEC048BBDE8F08F0000CDCC4C3EC9
:100FF00000F06EF8FCE7000070B504460022032103
:1010000004F178000BF0FBFD0022204604210CF0D7
:1010100019FC0022012104F1B0000BF0F0FD0022C8
:10102000022104F13C000CF00DFC24489FED220A43
:1010300080ED000A80ED010A9FED210AA0F5A07065
:1010400080ED400A9FED1F0A80ED440A0025B4F8A8
:101050007820B4F87C101C480BF0A0FD01200CF0A7
:1010600015F86D1C0A2DF2DB00252288218916480F
:101070000BF094FD01200CF009F86D1C0A2DF4DB37
:101080000025B4F8B020B4F8B41010480BF086FD79
:1010900001200BF0FBFF6D1C0A2DF2DB0025A28F57
:1010A000B4F8441009480BF079FD01200BF0EEFF75
:1010B0006D1C0A2DF3DB70BD6C43853D2487002435
:1010C000CDCCCCBECDCC4C3D30030024D00300248D
:1010D0002DED028B82B0DFF8088402E001200BF0D6
:1010E000D5FF98F890000028F8D0FE48FFF784FF5D
:1010F000DFF8F4930027FE4DDFF8F0B309F1800A22
:10110000F84E05F10800A9F128040190001D9FED9B
:10111000F98A0090F64AF249F2480BF0C3FB00212D
:1011200095ED070A09EB011007F0B1F80AEB810011
:1011300080ED000A491C0429F2DB042195ED080A20
:1011400009EB011007F0A3F80AEB810080ED000A1B
:10115000491C0829F2DB95ED070AD5ED080A30EEA7
:10116000200AF6EE000A60EE200A9FEDE31A9FEDDA
:10117000E30A334610EE810A86ED400AD3ED3C0ABD
:1011800093ED3F1AD3ED3B2A30EEC11ADAED000A97
:1011900021EE202AD3ED3D0ADFEDD91A52EEA10A45
:1011A000DAED011AD3ED492A01EEA02AD3ED481A4F
:1011B00030EE610ADAED021A01EE802AD3ED411A0F
:1011C00071EEE21ADAED032A02EEA12ADAED042A20
:1011D00021EE221ADAED052A02EEA01ADAED060A4D
:1011E00000EE801A9AED070A00EE211A83ED101A1C
:1011F000B1EE420A83ED010AD8ED060A93ED4B0ADF
:1012000008F02CFB84ED030AD3ED010A70EEC00A4E
:10121000C3ED010AD3ED100A30EEC00A83ED100AC7
:10122000DFEDB81AF0EE610A9FEDB72A181DB0EE97
:10123000420A0BF011FFAB48F0EE610A4030B0EE0D
:10124000420A0BF009FF93ED430AD3ED4A0A94EDED
:10125000081A30EE600AD4ED070A20EE200AD8ED15
:10126000040A01EE200A85ED060A93F837010128E9
:1012700031D002282FD003282DD0D6ED441AD5ED39
:10128000070A94ED041A95ED093A31EEE02AD4EDFF
:10129000060AF0EE602A41EE022A94ED052A42EE9B
:1012A000032AC5ED042AD5ED082A71EEE21A41EEB3
:1012B000210A95ED0A1A42EE410AC5ED050A934945
:1012C000E869884206DD286A884203DD96F837011E
:1012D000042878D0B0E001283FD0022875D0032838
:1012E000EDD1D5ED070ADFED8A2AD4ED041A95ED8C
:1012F000093A32EEE01A94ED052A21EE211A02EEA7
:10130000031A85ED041A95ED081A72EEC12A62EEF1
:10131000A11AD5ED0A2A42EE621AC5ED051AD6EDDC
:101320003F1AC6ED3C1A10EE900A7A49884206DA56
:1013300011EE100A884202DA606A401C6062606A3C
:101340000228BCDB6762DFED740AC6ED440AC6ED15
:10135000450A042086F83701B1E795ED071A9FED9D
:101360006F3AD4ED060A94ED042A73EE412AF0EEAA
:10137000601AD5ED093A42EE221AD4ED052A42EE62
:10138000A31AC5ED041AD5ED081A33EE613A42EE00
:10139000030A95ED0A2A42EEC20AC5ED050A11EECE
:1013A000100A5F49884206DA11EE900A884202DA92
:1013B000606A401C6062606A042880DB6762022009
:1013C00086F837017BE735E0FFE795ED071A9FEDDB
:1013D000553AD4ED060A94ED042A73EE412AF0EE54
:1013E000601AD5ED093A42EE221AD4ED052A42EEF2
:1013F000A31AC5ED041AD5ED081A33EE613A42EE90
:10140000030A95ED0A2A42EEC20AC5ED050A11EE5D
:10141000100A584506DD11EE900A584502DD606A53
:10142000401C6062606A022896DB6762032086F8CF
:10143000370144E786F8377196F8380110B1012872
:1014400032D035E0D5ED040A374910EE900A8842D3
:101450000CDA6869884209DA96F83901012805D161
:1014600096F83701012801D0022810D196F83701EB
:1014700003280CD004280AD070EE800AC5ED040AB7
:10148000D5ED050A30EEC00A85ED050A10E086EDBF
:10149000018A86ED108A86ED3F8A86ED3C8A96EDBC
:1014A0004B0A86ED420A03E085ED048A85ED058A44
:1014B00096ED250AFFF780F8D5ED010AB8EE001A7F
:1014C00060EE810A20EE200AD5ED040A20EE200A03
:1014D00085ED020A96ED330AFFF76EF826E000006C
:1014E0008C840024E48500241C0100247B14AE3D80
:1014F00024870024000000007B142E3F280F8B3E21
:101500003333333FEC51383EEC5138BEAE47613D8A
:101510000AD7233CEC51383D8FC2753D0AD7233D95
:10152000CDCC4C3D9A99993ECDCCCC3DD5ED000A21
:10153000B0EE001A60EE810A20EE200AD5ED050A11
:1015400020EE200AB1EE400A85ED030A96F8370135
:10155000012862D0022860D003285ED00198F0EE06
:10156000080AB8EE080A0BF077FD0098F0EE080ABA
:10157000B8EE080A0BF070FD96F8300101285BD038
:1015800000287FF4C7AD96ED4B0A86ED420A86ED42
:10159000438A9FED470A86ED440A86ED3F8A86ED31
:1015A0003C8A44480321B0EE482AF0EE481AB0EED7
:1015B000481AF0EE480AB0EE480A0BF0EBFC3E4841
:1015C0000121B0EE482AF0EE481AB0EE481AF0EECB
:1015D000480AB0EE480A0BF0DDFC36480421B0EEB4
:1015E000482AF0EE481AB0EE481AF0EE480AB0EE7B
:1015F000480A0BF06DFC30480221B0EE482AF0EEAC
:10160000481AB0EE481AF0EE480AB0EE480A0BF05D
:101610005FFC20680BF03AFD7CE50198F1EE040ACE
:10162000B9EE040A0BF018FD0098F1EE040AB9EEC9
:10163000040A0BF011FD9FE71E48032195ED022AD5
:10164000F0EE481AB0EE481AF0EE480AB0EE480A3A
:101650000BF0A0FC1848012195ED032AF0EE481A82
:10166000B0EE481AF0EE480AB0EE480A0BF092FCD1
:101670001048042196ED012AF0EE481AB0EE481AFF
:10168000F0EE480AB0EE480A0BF022FC0A480221AC
:1016900096ED102AF0EE481AB0EE481AF0EE480A1D
:1016A000B0EE480A0BF014FC20680BF0EFFC31E5BB
:1016B000CDCC4C3D30030024D0030024014801F080
:1016C00077B8000098050024014801F071B80000C7
:1016D00010060024014801F06BB80000140A002431
:1016E000014801F065B800008C0A0024014801F0AF
:1016F0005FB8000024090024014801F059B8000037
:101700009C09002410B52C4A016891423AD02A4A1B
:101710001832914236D0284A3032914232D0264A8D
:10172000483291422ED0244A603291422AD0224A35
:101730007832914226D0204A9032914222D01E4ADD
:10174000A83291421ED01D4A91421BD01B4A18322A
:10175000914217D0194A3032914213D0174A483279
:1017600091420FD0154A603291420BD0134A783221
:10177000914207D0114A9032914203D00F4AA832C9
:10178000914214D1CAB2103A1823B2FBF3F20C4CB6
:1017900002F00703E35CC365032A04D96FF3090170
:1017A000091D816506E06FF30901816502E021F002
:1017B000FF018165806D10BD1000024010040240E1
:1017C00078DB000810B501680123224CCAB2A1429F
:1017D0001BD0204C1434A14217D01E4C2834A142F7
:1017E00013D01C4C3C34A1420FD01A4C5034A142AF
:1017F0000BD0184C6434A14207D0164C7834A14267
:1018000003D0144C8C34A1420FD1083A1421B2FBFE
:10181000F1F1114A02EB810202660F4A8032426600
:1018200001F01F018B40836610BD103A1824B2FBF3
:10183000F4F20A4C2144A82900D80832084901EBE7
:101840008201016606498031416602F01F018B402A
:10185000836610BD0854025800580258F0FBFDBFC3
:10186000000802400279521E072A31D8194B01683C
:1018700099421BD0174B1433994217D0154B28337C
:10188000994213D0134B3C3399420FD0114B503334
:1018900099420BD00F4B6433994207D00D4B7833EC
:1018A000994203D00B4B8C33994207D10A4901EB83
:1018B0008201C16608494031016706E0074901EB32
:1018C0008201C166054940310167012191404167AC
:1018D000704700000854025800590258000902409D
:1018E000014610B500208B694FF0C0748A6A002B46
:1018F0000ED0B3F5005F1AD062B3012A2AD0022AB3
:1019000028D0032A03D1C96AC90100D5012010BD1E
:101910001AB1012A06D0022AF9D1C96AC901F6D53D
:10192000012010BDC96AA142FBD1012010BD52B1F6
:10193000012A0AD0022A06D0032AF7D1C96AA14295
:10194000F4D1012010BD012010BDC96AC901FBD529
:10195000012010BD012010BD2DE9F04F856D8A4E8C
:10196000894FDFF824C2A836DFF81C82DFF818920E
:101970000CF1180CDFF810A208F13008DFF808B2FB
:1019800009F1480904680AF1600A0BF1780BBC42BE
:101990006DD064456BD0444569D04C4567D0544503
:1019A00065D05C4563D0DFF8E0E10EF1900E744540
:1019B0005DD0B4425BD0DFF8D4E1744557D0DFF896
:1019C000CCE10EF1180E744551D0DFF8C0E10EF1F4
:1019D000300E74454BD0DFF8B4E10EF1480E74457B
:1019E00045D0DFF8A8E10EF1600E74453FD0DFF876
:1019F0009CE10EF1780E744539D0DFF890E10EF1DC
:101A0000900E744533D0DFF884E10EF1A80E7445D2
:101A10002DD0DFF87CE1744529D0DFF874E10EF1B8
:101A2000140E744523D0DFF868E10EF1280E7445DA
:101A30001DD0DFF85CE10EF13C0E744517D0DFF8E5
:101A400050E10EF1500E744511D0DFF844E10EF173
:101A5000640E74450BD0DFF838E10EF1780E744552
:101A600005D0DFF82CE10EF18C0E744509D1D0E9D8
:101A700019E4CEF80440C46E1CB1D0E91CE4CEF8E1
:101A800004400468BC422ED064452CD044452AD082
:101A90004C4528D0544526D05C4524D03A4F903749
:101AA000BC4220D0B4421ED0384EB4421BD0374E78
:101AB0001836B44217D0354E3036B44213D0334EB8
:101AC0004836B4420FD0314E6036B4420BD02F4E60
:101AD0007836B44207D02D4E9036B44203D02B4E08
:101AE000A836B4421BD190F85C4004F01F063F2496
:101AF000B440AC600468256825F48025256004683E
:101B000063608368402B05D0036899600068C260F9
:101B1000BDE8F08F03689A600068C160F8E71C4E6A
:101B2000B4421BD01A4E1436B44217D0184E283681
:101B3000B44213D0164E3C36B4420FD0144E503639
:101B4000B4420BD0124E6436B44207D0104E7836F1
:101B5000B44203D00E4E8C36B442D9D190F85C40DA
:101B600004F01F060124B4406C600468636083685D
:101B7000402B04D0036899600068C260C8E703681E
:101B80009A600068C160C3E7100002401004024080
:101B90000854025808B50748406800900648009964
:101BA0000269914202D2C168491CC1600099016179
:101BB00008BD0000001000E0C00100240A48416890
:101BC0000A4AD2ED000A4268521AF8EE601A01EE93
:101BD000102AB8EE411A60EE211AB4EEE11AF1EEC5
:101BE00010FAF0D370470000001000E0C00100249C
:101BF00000B52DED028B81B00D4949680091016857
:101C0000009A511A00EE101A0A49F8EE400A91EDB6
:101C1000000AB8EE400A80EE808A00990160FFF762
:101C2000B9FF01B0B0EE480ABDEC028B00BD000068
:101C3000001000E0C001002410B500F043F80C488B
:101C40009FED0C1A90ED000A8188C08800EE901A72
:101C5000B8EE400AF8EE600A00EE810A00EE900A43
:101C60009FED051AF8EE600A00EE810A10BD000033
:101C7000F00100246F12833ABD3786350D490A689A
:101C800042F080720A600C4900224A600B6843F0FF
:101C900001030B6009494843094908604FF47A730E
:101CA000B0FBF3F34B60054BB0FBF3F08860CA6008
:101CB00070470000FCED00E0001000E040420F0023
:101CC000C00100242DE9F84F204840680090FFF73C
:101CD00061FFDFF87C904FF0FF334FF0000A00986F
:101CE0005146D9F80C20E2FB030104460D46C9E930
:101CF0000E01D9F800B00023204629465A46FEF7C7
:101D000061FB06460F463046A0FB0B2107FB0B117B
:101D100006FB0A13A71A65EB030809F130042660D5
:101D20000023D9F80460414638463246FEF74AFBA4
:101D300080B2A0807043381A68EB0A01D9F80820F5
:101D40000023FEF73FFBE080BDE8F88F001000E0C5
:101D5000C00100247047B6EE002A92ED020AB0EEF0
:101D6000421AD2ED030A00EE401AD0ED001AD0ED6F
:101D7000013A00EEE01A21EE213A92ED011AD2ED7D
:101D8000001A61EE002A41EEA02A61EE200A41EE1F
:101D9000C00A02EEA33A90ED020AF0EE002A00EE2D
:101DA000803A23EE220A81ED000A92ED010AD2ED7B
:101DB000021A92ED001AD2ED030A20EE213AD0ED7C
:101DC000003A90ED014A01EE603A23EE233AF0EE3C
:101DD000423A40EE403A40EEE03A61EEA00A41EE6F
:101DE000000A03EE843A90ED020A00EE803A23EEF8
:101DF000220A81ED010AD2ED010AD2ED031A92ED19
:101E0000020A92ED001A20EEA13A60EE211AD0EDFE
:101E1000003A00EEE02A01EE003A41EE601A90ED41
:101E2000011A00EE402A23EE233A90ED020A01EE59
:101E3000813A02EE003A23EE220A81ED020A70474F
:101E400072B6FEE710B58AB0002402940394022013
:101E50000490012005900694079402A9104801F00F
:101E600074FC08B1FFF7ECFF02220D480023114675
:101E7000009401F0AEFC08B1FFF7E2FF0848002231
:101E8000012101F0E9FB08B1FFF7DAFF044802F095
:101E90006DF9002801D0FFF7D3FF0AB010BD000094
:101EA00030030024014801F085BD00003003002408
:101EB00010B58AB0002402940120039002200490FF
:101EC00005900694079402A9104801F03EFC08B161
:101ED000FFF7B6FF02220D4800231146009401F0DF
:101EE00078FC08B1FFF7ACFF08480022102101F090
:101EF000B3FB08B1FFF7A4FF044802F037F900284C
:101F000001D0FFF79DFF0AB010BD0000D0030024F0
:101F1000014801F04FBD0000D0030024014801F04A
:101F200049BD00007004002430B5426B036853F8CB
:101F3000844F4FF6FC718C4344EA82041C600368B2
:101F400053F8844F058F24F47F0444EA05441C6051
:101F5000836B1A44036853F8884F8C4344EA820425
:101F60001C60036853F8884F858F24F4FE0444EA0C
:101F700005441C60C36B02EB4302036853F8A04F97
:101F80008C4344EA82041C60036853F8A04FB0F805
:101F9000405024F4FE0444EA05441C60D0E91034A7
:101FA00003FB0422036853F8B04F8C4344EA8204D5
:101FB0001C60036853F8B04FB0F8485024F4FE0496
:101FC00044EA05441C60D0E9123403FB0422036890
:101FD00053F8AC4F8C4344EA82041C60D0E91434BB
:101FE00003FB0422036853F8F04F8C4344EA820455
:101FF0001C60036853F8F04FB0F8585024F47C1478
:1020000044EA05441C60836D02EB4303026852F806
:10201000C04F8C4344EA83011160016851F8C02F1E
:10202000B0F85C3022F47C1242EA03420A60016894
:1020300051F8C02F90F8603022F07C5242EA0362DF
:102040000A60416B224A02EB8101C166826B01EB9F
:1020500082020267C36B02EBC3024267D0E910340D
:10206000634302EB83028267D0E91234634302EBDD
:102070008302C267D0E91434634302EB8302C0F8E1
:102080008020836D02EBC302C0F88420C46D836E90
:102090005C4302EB8402C0F88820046E5C4302EBD0
:1020A0008402C0F890200B4B9A4208D998304168BE
:1020B00041F02001416003210170012030BD002268
:1020C00000E004C1D0F890308B42FAD8002030BD37
:1020D00000AC0040FCD30040F0B5D1E901650C69CB
:1020E0002C430D68002E1AD045F080452C4391F802
:1020F0002070D1E9066535434E6946EA07663543E7
:102100008E8945EA0645D0F88460806E584306EB18
:1021100080031C605D60083300200B4E0FE044EA32
:102120008544E4E71418155CE77845EA0765A77865
:1021300064783F0447EA0424254320C3001DCC688B
:10214000345D8442EED8F0BD80DB000810B50B484A
:102150000168001D0468001D0068084400280BD0B9
:102160000749082206F076F8054904222046BDE812
:102170001040103106F06EB810BD000000E8F11FED
:102180006E0200242DE9F84F044602F023F9009076
:102190005CB194F83500022809D0802060650020E9
:1021A00084F834000120BDE8F88F0120FBE7D14E10
:1021B000D04FD0491836DFF83C833037DFF83493FE
:1021C000DFF830A308F14808DFF828B309F1600907
:1021D00020680AF1780A0BF1900B88422ED0B042A9
:1021E0002CD0B8422AD0404528D0484526D050456A
:1021F00024D0584522D0BF4AA83290421ED0BE4AB1
:1022000090421BD0BC4A1832904217D0BA4A3032A2
:10221000904213D0B84A483290420FD0B64A60324A
:1022200090420BD0B44A7832904207D0B24A9032F2
:10223000904203D0B04AA83290420AD1026822F0FC
:102240001E0202602068426922F080024261256815
:1022500004E0026822F00E020260256820688842CD
:102260004DD0B0424BD0B84249D0404547D0484508
:1022700045D0504543D0584541D09E4AA83290425F
:102280003DD09D4A90423AD09B4A1832904236D077
:10229000994A3032904232D0974A483290422ED0FA
:1022A000954A603290422AD0934A7832904226D0A2
:1022B000914A9032904222D08F4AA83290421ED04A
:1022C0008E4A90421BD08D4A1432904217D08B4ACE
:1022D0002832904213D0894A3C3290420FD0874A2C
:1022E000503290420BD0854A6432904207D0834AE4
:1022F0007832904203D0814A8C32904204D1206ED1
:10230000026822F4807202607A49206888422ED0E6
:10231000B0422CD0B8422AD0404528D0484526D0DB
:10232000504524D0584522D07249A83188421ED049
:10233000714988421BD070491831884217D06E49C4
:102340003031884213D06C49483188420FD06A49F5
:10235000603188420BD068497831884207D066499D
:102360009031884203D06449A831884204D1016881
:1023700021F00101016013E0016821F00101016019
:102380000EE002F027F80099401A052808D920200D
:10239000343420620320607000202070012002E7A6
:1023A0002868C007EDD1534A0121206890422ED001
:1023B000B0422CD0B8422AD0404528D0484526D03B
:1023C000504524D0584522D04A4BA83398421ED0BD
:1023D000494B98421BD0484B1833984217D0464B74
:1023E0003033984213D0444B483398420FD0424B7D
:1023F000603398420BD0404B7833984207D03E4B25
:102400009033984203D03C4BA833984208D1A06D3A
:1024100094F85C3003F01F053F23AB40836007E076
:10242000A06D94F85C3003F01F0301FA03F34360DE
:10243000206890424DD0B0424BD0B84249D0404580
:1024400047D0484545D0504543D0584541D0294A0A
:10245000A83290423DD0284A90423AD0264A1832BB
:10246000904236D0244A3032904232D0224A48320A
:1024700090422ED0204A603290422AD01E4A7832B2
:10248000904226D01C4A9032904222D01A4AA8325A
:1024900090421ED0194A90421BD0184A14329042E2
:1024A00017D0164A2832904213D0144A3C32904238
:1024B0000FD0124A503290420BD0104A64329042F0
:1024C00007D00E4A7832904203D00C4A8C329042A8
:1024D0000BD1D4E919205060E06E30B1026822F4CB
:1024E00080720260D4E91C20506034346170002096
:1024F000207058E6100002401004024008540258B0
:102500002DE9F05F002808D090F83510022906D098
:10251000802141650120BDE8F09F0120FBE7A14A31
:10252000A04BA04C18329F4D30339E4E4834DFF8FC
:1025300074B26035DFF870C27836DFF86C82DFF88D
:1025400068920CF1300CDFF860A208F160080168B5
:1025500009F17809944F0AF1900A594531D0914216
:102560002FD099422DD0A1422BD0A94229D0B142DF
:1025700027D0DFF830E20EF1900E714521D0DFF860
:1025800024E20EF1A80E71451BD0DFF81CE2AEF17B
:10259000180E714515D0B94213D0DFF80CE20EF1D8
:1025A000180E71450DD061450BD0DFF8FCE10EF13E
:1025B000480E714505D0414503D0494501D05145EC
:1025C00037D14FF0040E80F835E0594527D09142BD
:1025D00025D0994223D0A14221D0A9421FD0B14297
:1025E0001DD070489030814219D06E48A830814289
:1025F00015D06D481838814211D0B9420FD06A48C1
:10260000183081420BD0614509D06748483081427B
:1026100005D0414503D0494501D0514504D1086852
:1026200020F001000860BAE0086820F001000860AE
:10263000B5E0D1F800E02EF00E0EC1F800E0016820
:10264000DE46594531D091422FD099422DD0A1423A
:102650002BD0A94229D0B14227D0DFF848B10BF1E5
:10266000900B594521D0DFF83CB10BF1A80B59452F
:102670001BD0DFF834B1ABF1180B594515D0B94276
:1026800013D0DFF824B10BF1180B59450DD061457B
:102690000BD0DFF814B10BF1480B594505D041457B
:1026A00003D0494501D0514506D1D1F800B02BF0F7
:1026B000010BC1F800B005E0D1F800B02BF0010B20
:1026C000C1F800B001684FF0010B714546D091424E
:1026D00044D0994242D0A14240D0A9423ED0B1421A
:1026E0003CD0304A9032914238D02E4AA8329142A2
:1026F00034D02D4A183A914230D0B9422ED02A4ACD
:10270000183291422AD0614528D0274A4832914256
:1027100024D0414522D0494520D051451ED0234ADE
:1027200091421BD0214A1432914217D01F4A2832BD
:10273000914213D01D4A3C3291420FD01B4A503275
:1027400091420BD0194A6432914207D0174A78322D
:10275000914203D0154A8C32914218D1016E0A6819
:1027600022F480720A60816D90F85C2002F01F02F2
:102770000BFA02F24A60D0E919215160C16E31B101
:102780000A6822F480720A60D0E91C21516080F846
:1027900035B0002180F83410016D01B18847002068
:1027A000B9E6000010000240280402400854025814
:1027B0002DE9FF5F0446002001904FF41651FD48BB
:1027C0000068B0FBF1F00090A56D2E682968FA4F03
:1027D000DFF8E4B3DFF8E083DFF8DC930BF1180BEC
:1027E000DFF8D4A308F13008206809F148090AF19C
:1027F000600AB8423BD05A46904238D0404536D065
:10280000484534D0504532D0EB4A783290422ED0F1
:10281000E94A903290422AD0E74AA832904226D024
:10282000E64A904223D0E54A183290421FD0E34B4B
:10283000303398421BD0E14B4833984217D0DFF831
:102840007CC30CF1600C604511D0DFF870C30CF153
:10285000780C60450BD0DFF864C30CF1900C604538
:1028600005D0DFF858E30EF1A80E70457ED194F83C
:102870005C10082301F01F0103FA01F232424BD031
:10288000B84232D0584530D040452ED048452CD0A3
:1028900050452AD0C8497831884226D0C64990315F
:1028A000884222D0C449A83188421ED0C3498842F8
:1028B0001BD0C2491831884217D0C04930318842F4
:1028C00013D0BE49483188420FD0BC49603188429C
:1028D0000BD0BA497831884207D0B8499031884244
:1028E00003D0B649A831884203D1016801F0040140
:1028F00002E0016801F0080171B1016821F00401F2
:10290000016094F85C0000F01F0003FA00F2AA6076
:10291000606D40F00100606594F85C00012100F0FA
:102920001F008140314240D02068B84234D0584521
:1029300032D0404530D048452ED050452CD09E4A0C
:102940007832904228D09C4A9032904224D09A4AC1
:10295000A832904220D0994A90421DD0974A18320E
:10296000904219D0954A3032904200E0D2E113D023
:10297000924A483290420FD0904A603290420BD037
:102980008E4A7832904207D08C4A9032904203D0DF
:102990008A4AA83290427DD1406910F0800F04D05D
:1029A000A960606D40F00200606594F85C0004214D
:1029B00000F01F00814031423ED02068B84232D042
:1029C000584530D040452ED048452CD050452AD0CF
:1029D000794A7832904226D0774A9032904222D07B
:1029E000754AA83290421ED0744A90421BD0734A56
:1029F0001832904217D0714A3032904213D06F4A49
:102A0000483290420FD06D4A603290420BD06B4AF0
:102A10007832904207D0694A9032904203D0674A98
:102A2000A83290424ED1006810F0020F04D0A96085
:102A3000606D40F00400606594F85C00102100F0C7
:102A40001F008140314260D02068B84234D05845E0
:102A500032D0404530D048452ED050452CD0564A33
:102A60007832904228D0544A9032904224D0524A30
:102A7000A832904220D0514A90421DD04F4A18327D
:102A8000904219D04D4A3032904215D04B4A4832CC
:102A9000904200E014E00FD0484A603290420BD0E0
:102AA000464A7832904207D0444A9032904203D04E
:102AB000424AA832904207D1006800F0080006E0C0
:102AC000006872E70068B7E7006800F0040058B1DA
:102AD000A9602068016849030CD50068000304D48C
:102AE000216C09B1204688470FE0A16C69B12046EE
:102AF00088470AE00168C90503D4016821F008018C
:102B00000160216C09B12046884794F85C002021BF
:102B100000F01F00814031427BD02068B84232D0A3
:102B2000584530D040452ED048452CD050452AD06D
:102B3000214A7832904226D01F4A9032904222D0C9
:102B40001D4AA83290421ED01C4A90421BD01B4AFC
:102B50001832904217D0194A3032904213D0174A97
:102B6000483290420FD0154A603290420BD0134A3F
:102B70007832904207D0114A9032904203D00F4AE7
:102B8000A832904203D1006800F0100002E0006813
:102B900000F00200E8B3A96094F83500042812D0D0
:102BA0002068016849033DD50068000335D4616C95
:102BB00079B305E01C00002410000240100402401C
:102BC000204688473FE02068016821F01601016037
:102BD0002068416921F080014161206C08B9A06C36
:102BE00020B12068016821F00801016094F85C00C0
:102BF00000F01F013F208840A860012084F83500C4
:102C0000002084F83400216D002974D004B02046DF
:102C100000E018E0BDE8F05F0847E16B99B120469D
:102C2000884710E00168C90509D4016821F0100146
:102C30000160012084F83500002084F83400E16B45
:102C400009B120468847606D002854D0606DC007E8
:102C500058D0042084F835002068B84231D0584557
:102C60002FD040452DD048452BD0504529D0B749CD
:102C7000884226D0B5491831884222D0B349303134
:102C800088421ED0B24988421BD0B14918318842CF
:102C900017D0AF493031884213D0AD49483188420E
:102CA0000FD0AB49603188420BD0A94978318842B6
:102CB00007D0A7499031884203D0A549A83188425E
:102CC00004D1016821F00101016003E0016821F0F5
:102CD0000101016021680198009A401C0190904216
:102CE00002D80868C007F6D10868C00704D00320DE
:102CF00084F8350003E087E0012084F835000020E7
:102D000084F83400E16C00297ED004B02046BDE890
:102D1000F05F08478F4EB0421BD08E4E1436B04243
:102D200017D08C4E2836B04213D08A4E3C36B04273
:102D30000FD0884E5036B0420BD0864E6436B0422B
:102D400007D0844E7836B04203D0824E8C36B042E3
:102D50005AD106684FF0040E94F85CB00BF01F0BCC
:102D60000EFA0BFE1EEA010FCDF80CE05ED05FEA12
:102D7000467E5BD503986860300411D5F00307D414
:102D8000A16C002940D004B02046BDE8F05F0847A0
:102D9000216C002938D004B02046BDE8F05F084718
:102DA000B0063BD42068B8422DD0684960398842CB
:102DB00029D0404527D0484525D0504523D06349E8
:102DC000884220D06149183188421CD05F49303197
:102DD000884218D05E49884215D0904213D05C4991
:102DE000303188420FD098420DD059496031884225
:102DF00009D057497831884205D0604503D05449FD
:102E0000A831884206D100E07CE0016821F0080189
:102E1000016003E0016821F004010160216C0029D8
:102E200070D004B02046BDE8F05F08474FF0020EB6
:102E30000EFA0BFE1EEA010FCDF808E063D05FEA40
:102E4000867E60D502986860300411D5F00307D4FF
:102E5000616C002978D004B02046BDE8F05F0847D7
:102E6000E16B002970D004B02046BDE8F05F084750
:102E7000B0063FD42068B8422DD03449603988422A
:102E800029D0404527D0484525D0504523D02F494B
:102E9000884220D02D49183188421CD02B4930312E
:102EA000884218D02A49884215D0904213D0284928
:102EB000303188420FD098420DD025496031884288
:102EC00009D023497831884205D0604503D0204994
:102ED000A831884204D1016821F01401016003E0A7
:102EE000016821F00A010160012084F8350000200A
:102EF00084F83400E16B002926D004B02046BDE8F8
:102F0000F05F084720E0082202FA0BF20A421BD0C9
:102F1000310719D5016821F00E01016094F85C00B9
:102F200000F01F01012000FA01F16960606584F87A
:102F30003500002084F83400E16C002904D004B08E
:102F40002046BDE8F05F0847BDE8FF9F88000240CB
:102F500010040240085402582DE9F05F044601F0C5
:102F600039FA0646002C7DD0F24F0222DFF8C483E6
:102F70000025DFF8C093DFF8BCA308F13008DFF8C4
:102F8000B4B309F1480920680AF1600A0BF1780B23
:102F9000B84232D0E749183188422ED040452CD073
:102FA00048452AD0504528D0584526D0E14990318F
:102FB000884222D0DF49A83188421ED0DE498842AB
:102FC0001BD0DD491831884217D0DB4930318842A7
:102FD00013D0D949483188420FD0D749603188424F
:102FE0000BD0D5497831884207D0D34990318842F7
:102FF00003D0D149A83188427ED184F8352084F8A5
:103000003450B84234D0CB491831884230D0404592
:103010002ED048452CD050452AD0584528D0C549F7
:103020009031884224D0C349A831884220D0C24977
:1030300088421DD0C0491831884219D0BE4930316C
:10304000884215D0BC494831884211D0BA49603114
:1030500088420DD0B8497831884209D0B6499031BC
:10306000884200E009E003D0B349A831884207D183
:10307000016821F00101016013E00120BDE8F09F2B
:10308000016821F0010101600BE001F0A3F9801B50
:10309000052806D920206065032084F8350001202A
:1030A000ECE720680068C007EFD122681168A348E8
:1030B0000140D4E902031843D4E9043633431843EA
:1030C000A3691843E3691843236A18430843616AF4
:1030D000042903D1D4E90B13194308436168A1F112
:1030E0002903052B0DD9163B032B0AD9083B012BCD
:1030F00007D9083B032B00E02AE002D974390329E1
:1031000001D840F4801010602068406920F0070169
:10311000606A40EA010604280DD1A06A0643E06A0D
:1031200048B12046FEF7DCFB28B140206065012055
:1031300084F83500A2E7206846612046FEF7E2FAEF
:1031400094F85C1001F01F023F219140816066E01D
:103150007B4988421BD07A4B1433984217D0784B66
:103160002833984213D0764B3C3398420FD0744B9F
:10317000503398420BD0724B6433984207D0704B57
:103180007833984203D06E4B8C3398427ED188427C
:1031900011D06B49143188420DD0694928318842D9
:1031A00009D067493C31884205D065495031884291
:1031B00001D06349643184F8352084F834500268C2
:1031C00060490A40A16840297ED080297DD0002135
:1031D000E36841EAD301236941EAD301636941EA23
:1031E000D301A36941EAD301E36941EAD301236A28
:1031F00041EA1311114301605149206849420844D2
:103200001421B0FBF1F08000E0652046FEF77AFA69
:1032100094F85C1001F01F02012191404160206888
:10322000B84256D043491831884252D0404550D018
:1032300048454ED050454CD058454AD03D49903134
:10324000884246D03B49A831884242D03A49884218
:103250003FD03949183188423BD037493031884214
:1032600037D035494831884233D0334960318842BC
:103270002FD03149783188422BD02F499031884264
:1032800027D02D49A831884223D000E02DE02C49D9
:1032900088421ED02A49143188421AD02849283140
:1032A000884216D026493C31884212D024495031F8
:1032B00088420ED02249643188420AD020497831B0
:1032C000884206D01E4901E00AE00BE08C318842BA
:1032D00029D12046FEF776FAA06880280CD00CE0B1
:1032E000102175E74FF4804172E7402060650320AC
:1032F00084F835000120C1E66560216E2079086000
:10330000D4E9191048606068401E072808D8204694
:10331000FEF7A8FAE06E0560D4E91C10486002E0F0
:10332000E566256765676565012084F8350000203E
:10333000A4E6000010000240100402403F8010FE8E
:10334000085402580F00FEFF2DE9F84F04460020F4
:103350000090002C15D094F83400012813D00120DF
:1033600084F8340094F835500020012D0DD04FF42E
:103370000061616584F83400012000900098BDE888
:10338000F88F0120FBE70220F9E7022584F8355089
:103390006065A54DA44EA44F1835DFF88CC23036B9
:1033A000DFF884824837DFF88092DFF87CA208F1EA
:1033B0006008DFF874B209F1780920680AF1900A10
:1033C0000BF1A80B60453BD0A84239D0B04237D0B2
:1033D000B84235D0404533D0484531D050452FD044
:1033E00058452DD0DFF844C2604529D0DFF83CC2F3
:1033F0000CF1180C604523D0DFF830C20CF1300C12
:1034000060451DD0DFF824C20CF1480C604517D090
:10341000DFF818C20CF1600C604511D0DFF80CC267
:103420000CF1780C60450BD0DFF800C20CF1900C69
:10343000604505D0DFF8F4C10CF1A80C604506D159
:10344000D0F800C02CF0010CC0F800C005E0D0F8A6
:1034500000C02CF0010CC0F800C02046FEF77CFA3A
:103460007149206888422CD0A8422AD0B04228D086
:10347000B84226D0404524D0484522D0504520D0DF
:1034800058451ED0694A90421BD0684A1832904273
:1034900017D0664A3032904213D0644A4832904284
:1034A0000FD0624A603290420BD0604A783290422C
:1034B00007D05E4A9032904203D05C4AA8329042D4
:1034C0000DD1026822F01E0242F016020260206C4A
:1034D00090B12068026842F0080202600CE00268C5
:1034E00022F00E0242F00A020260206C20B1206835
:1034F000026842F004020260206888424BD0A84271
:1035000049D0B04247D0B84245D0404543D0484565
:1035100041D050453FD058453DD0444A90423AD0E2
:10352000424A1832904236D0404A3032904232D02D
:103530003E4A483290422ED03C4A603290422AD0D5
:103540003A4A7832904226D0384A9032904222D07D
:10355000364AA83290421ED0354A90421BD0344A97
:103560001432904217D0324A2832904213D0304A57
:103570003C3290420FD02E4A503290420BD02C4A0F
:103580006432904207D02A4A7832904203D0284AC7
:103590008C3290420DD1206E0268D20303D50268AE
:1035A00042F480720260E06E18B1026842F48072E8
:1035B0000260206888422CD0A8422AD0B04228D08D
:1035C000B84226D0404524D0484522D0504520D08E
:1035D00058451ED0154988421BD0144918318842DD
:1035E00017D012493031884213D0104948318842EF
:1035F0000FD00E49603188420BD00C497831884297
:1036000007D00A499031884203D00849A83188423E
:1036100004D1016841F001010160AFE6016841F0A9
:1036200001010160AAE600001000024010040240FF
:103630000854025870B5044600F0CCFE0546601CE4
:1036400002D004480078044400F0C4FE401BA042AD
:10365000FAD370BD1000002410B590F89830012BFB
:1036600008D0022B06D050F89C1F41F002010160E7
:10367000012010BD03689C6D0C4204D1DC6D44F048
:103680000104DC6505E09C6D31EA04041CD00324D0
:10369000DC658B0504D5036853F8E04F14431C60C8
:1036A0004B0504D5036853F8E44F14431C600068CD
:1036B000426D084B0B401A4342650748026842EAD4
:1036C00091710160002010BDDC6D44F00204DC65E6
:1036D000DFE70000FFFFCF3F14A8004070B50446AD
:1036E00094F89800022806D054F89C0F40F0080087
:1036F0002060012070BD2068D0F8C03013F07C5FDE
:103700000AD0D0F8C4309B020DD554F89C0F40F479
:1037100000702060012070BD54F89C0F40F0200024
:103720002060012070BDD0F8C400C0F304452046DD
:103730002B46FEF7D1FC21680120A840C1F8D0003B
:10374000C4F89400002070BD704710B590F8982020
:10375000012A08D0022A06D050F89C1F41F002012D
:103760000160012010BDCA680B688BB1072A0B6984
:1037700043EA42732BD00C7A4A6942EA8472496860
:10378000006F00EBC100036042604FF0000010BD0D
:10379000072A10D00C7A4FEAC2624B6943EA84735D
:1037A0000C8A42EA044243EA02034968C06E00EB15
:1037B00081000360E9E70B8A4FF060548A6942EAAE
:1037C0000343CA6944EA022243EA0203EDE78A6935
:1037D000D5E730B5039C90F89850012D06D050F8ED
:1037E0009C1F41F004010160012030BD0068090107
:1037F00041EA820141EA43012143C0F880100020E0
:1038000030BD704770470000F0B5002490F8985024
:10381000022D06D050F89C1F41F0080101600120E4
:10382000F0BD40290BD0412936D0056D8D4260D8BE
:1038300050F89C1F41F0200101600120F0BD056897
:10384000D5F8A06016F4FE0F18D0D5F8A46076065F
:103850001BD0D5F8A460F60105D5D5F8A06016F008
:10386000004F00D50124D5F8A450C5F305252C44FC
:10387000456C466F654306EB85063FE050F89C1F9C
:1038800041F0200101600120F0BD50F89C1F41F47F
:10389000807101600120F0BD0568D5F8B06016F4B4
:1038A000FE0F18D0D5F8B46076061BD0D5F8B460FA
:1038B000F60105D5D5F8B06016F0004F00D501240B
:1038C000D5F8B450C5F305252C44C56C866F654307
:1038D00006EB850612E050F89C1F41F020010160C4
:1038E0000120F0BD50F89C1F41F48071016001205F
:1038F000F0BD456DC66F4D4306EB8506356805F096
:10390000804555602DB3356825F0604515603568F4
:1039100005F000559560356805F000451561B588DE
:10392000ADB2D5617568C5F30345D560756805F41A
:1039300080155561756805F4001595617568C5F3C6
:103940000665156275680836ED0F55620025174F3C
:1039500009E03568C5F38A451560D8E716F805C053
:1039600003F805C06D1CD2F80CC017F80CC0AC45AC
:10397000F4D8402909D041290BD0012220290CD2AA
:1039800000688A40C0F898200DE00068C0F8A840A0
:1039900009E00068C0F8B84005E0006801F01F01C8
:1039A0008A40C0F89C200020F0BD000080DB0008A9
:1039B000704700002DE9FE4F0446B64F3868800777
:1039C000391D096800EA817002902068016D01F4D8
:1039D0007041D0F854A00AEA010A016D01F00F010C
:1039E000D0F854B00BEA010B016D01F0F001426D0B
:1039F0000A400192016D01F07151D0F8548008EA3B
:103A00000108016D01F06071426D0A400092416D44
:103A1000056D4FF00009CE43F10509D4E943C9050E
:103A200006D4B9150165C7F800902046FFF7C0FF1E
:103A3000700510D4E84340050DD42068D0F8DC2090
:103A4000D0F8E41011404FF480620265C7F800908E
:103A5000204600F0A9FB029858B18F49029808400F
:103A6000216808650298800F386002992046FFF7A8
:103A70006BFEBAF1000F0BD0216887480AEA0000FC
:103A800008654FEA9A7038605146204600F08EFB78
:103A9000BBF1000F0BD021687F480BEA00000865DE
:103AA0004FEA9B7038605946204600F0D3FA0198DF
:103AB00058B1794901980840216808650198800F3C
:103AC00038600199204600F00BFB30050BD4E84329
:103AD000000508D421684FF400600865C7F800901D
:103AE000204600F064FBB00510D4E84380050DD4F7
:103AF0002068D0F8D820D0F8E01011404FF40072C0
:103B00000265C7F80090204600F04FFB30030BD44D
:103B1000E843000308D421684FF400200865C7F883
:103B20000090204600F094FAF0030BD4E843C00361
:103B300008D421684FF480300865C7F8009020460B
:103B400000F031FB70030BD4E843400308D4216834
:103B50004FF480200865C7F80090204600F022FB53
:103B6000B0030ED4E84380030BD421684FF4003037
:103B70000865C7F80090D4F89C0040F08000C4F8B5
:103B80009C00009858B14449009808402168086595
:103B90000098800F386000992046FFF733FEB8F197
:103BA000000F0DD021683C4808EA000008654FEA84
:103BB00098703860D4F89C0040EA0800C4F89C0073
:103BC0003649206888425BD160688168890757D090
:103BD000016A01F00F02416A1140026A02F03002EC
:103BE000476A1740026A02F4C072D0F8248008EADB
:103BF0000208026A02F4FC42456A1540026A02F4B5
:103C0000F022466A1640D0F82490D0F820A019B1CE
:103C10000162204600F0C3FA2FB16068076239469E
:103C2000204600F0BEFA6FEA090040060ED46FEAA3
:103C30000A0040060AD46068C16B090CC26B02F02E
:103C40003F0240230362204600F0AAFAB8F1000FB9
:103C500006D06068C0F820804146204600F09EFAF9
:103C600035B160680562D4F89C002843C4F89C0014
:103C700036B160680662D4F89C003043C4F89C00FA
:103C8000D4F89C00002802D02046FFF7BAFDBDE81A
:103C9000FE8F000010A80040FFFFCF3F00A00040B3
:103CA0002DE9F04393B004464C2295496846FCF751
:103CB000BAFB6CB1934F2068B84202D100F5807016
:103CC00060604FF4407994F89800002620B108E035
:103CD000012013B0BDE8F08384F89960204600F01D
:103CE00013F92068816921F01001816100F072FBF5
:103CF00005464FF003080DE000F06CFB401B0A285E
:103D000008D954F89C0F40F00100206004F8048C9E
:103D10000120DEE7206880690007EDD42068816912
:103D200041F00101816100F055FB05460DE000F016
:103D300051FB401B0A2808D954F89C0F40F00100A1
:103D4000206004F8048C0120C3E720688069C00764
:103D5000EDD02068816941F002018161207C012859
:103D600039D02068816941F040018161607C01287F
:103D700037D02068816921F480418161A07C0128CD
:103D800035D02068816941F4805181612068816962
:103D9000A26821F44071114381612068816921F09A
:103DA000A40181612068016921F010010161E068CE
:103DB000012822D030B302282BD02068816941F03D
:103DC000800181612068016941F010010161E068B2
:103DD000032818D022E02068816921F04001816128
:103DE000C4E72068816941F480418161C6E72068A9
:103DF000816921F480518161C8E72068816941F0BF
:103E0000040181610AE02068816941F0200181613B
:103E100004E02068816941F020018161207E401E1C
:103E20004106E069401E41EA0020216A491E08431C
:103E3000A18A491E40EA01402168C861A06848453E
:103E40000FD1E16AA06A491E401E40EA0121206BA1
:103E5000401E41EA0011A08C401E41EA004021684A
:103E6000C860206E28B1206850F8C01F626E1143F0
:103E70000160D4E91701C842694609D0206850F8AA
:103E8000C82FA36E22F0070251F823301A430260B4
:103E9000206C48B1206850F8BC2F636C22F00702F8
:103EA00051F823301A430260A06C50B1206850F8DA
:103EB000BC2FE36C22F0700251F8233042EA031267
:103EC0000260206D50B1206850F8BC2F636D22F461
:103ED000E06251F8231042EA012101602068B842F3
:103EE00004D16068816821F00301816044F8946F17
:103EF000A66001202071943C2046FEF715F8E8E604
:103F000090DB000800A000402DE9F04186B0044697
:103F1000142101A8FCF7A0FA474B002522680227CC
:103F2000464C4FF0090CDFF80C8119680C3C434EED
:103F30004348491C424527D11960012907D13168FE
:103F400041F480713160316801F480710091216821
:103F500041F008012160216801F00801009103216E
:103F60000191029703950495CDF814C001A900F0C2
:103F70001FF900220621132000F0D0FA132000F0D0
:103F8000BFFA06B0BDE8F081DFF8B880424526D11F
:103F90001960012907D1306840F4807030603068C2
:103FA00000F480700090206840F0020020602068DB
:103FB00000F00200009060200190029703950495A4
:103FC000CDF814C001A9204800F0F2F80022052124
:103FD000142000F0A3FA142000F092FAD1E7DFF8E1
:103FE0006CC06245CDD11960012907D1316841F417
:103FF00080713160316801F480710091216841F075
:1040000008012160216801F0080100914FF440513E
:1040100001910297039504950521059101A900F0EE
:10402000C7F8002205219F2000F078FA9F2000F0B9
:1040300067FAA6E700A000400C000024EC440258F8
:10404000000C025800A400400004025800D40040B4
:104050007047000070B50446C80727D01C49206887
:10406000884223D11B484021FCF7F6F9194B402127
:104070002046A3F12802FFF7C7FB1649164D283941
:10408000A1F120040868132811D014280ED1CA68A1
:104090002831124808F034FD2868012806D1D4E9F7
:1040A0000201401C41F10001C4E9020170BD0B484E
:1040B000CA680849783008F0D5FC28680128F5D18D
:1040C000D4E90001401C41F1000103C470BD0000AF
:1040D00000A000409887002400020024E48500240A
:1040E00070B50446C80627D51C492068884223D1EC
:1040F0001B484021FCF7B0F9194B41212046A3F1A0
:104100002802FFF781FB1649164D2839A1F17804E2
:104110000868112811D012280ED1CA682831124817
:1041200008F0EEFC2868012806D1D4E90201401C01
:1041300041F10001C4E9020170BD0B48CA68084999
:10414000743008F08FFC28680128F5D1D4E900010B
:10415000401C41F1000103C470BD000000A40040F8
:1041600000880024000200242086002490F8981083
:10417000012906D050F89C1F41F004010160012084
:104180007047022180F8981001688A6922F00102C4
:104190008A610021C0F89C1000207047704770476A
:1041A0007047704770477047704770477047704757
:1041B0002DE9F84F0022784D03264FF001080F2714
:1041C0004FF0B04CE1E008FA02F31C409A46002C94
:1041D0007ED00B7903F00303012B01D0022B1BD1FE
:1041E000D0F80890530006FA03FB29EA0B09D1F82E
:1041F0000CB00BFA03FB4BEA090BC0F808B043689C
:1042000023EA0A0391F80490C9F3001909FA02F9A4
:1042100049EA0309C0F804900B79DB439B070ED0F1
:10422000D0F80C90530006FA03FA29EA0A09D1F8EB
:1042300008A00AFA03FA4AEA090AC0F80CA00B79A6
:1042400003F00303022B14D1D30800EB8303D3F84C
:1042500020A04FEA42794FEAD96907FA09FB2AEA16
:104260000B0AD1F810B00BFA09FB4BEA0A0BC3F8A2
:1042700020B0D0F80090530006FA03FA29EA0A09A0
:1042800091F804A00AF0030A0AFA03FA4AEA090AB2
:10429000C0F800A04B6813F4403F75D03F4BD3F8F3
:1042A000009049F00209C3F800901B6803F0020374
:1042B000009322F0030909F1B049D9F808B4930733
:1042C0004FEA137A07FA0AF32BEA030B344B00E0A8
:1042D0005AE0984201D1002328E0324B984201D1A4
:1042E000012323E0304B984201D102231EE02F4BE3
:1042F000984201D1032319E02D4B984201D10423A8
:1043000014E02C4B984201D105230FE02A4B984230
:1043100001D106230AE0294B984201D1072305E089
:10432000274B984201D1092300E00A2303FA0AF33C
:1043300043EA0B03C9F80834DCF80030A343D1F892
:1043400004905FEAC92900D52343CCF80030DCF89B
:104350000430A343D1F804905FEA892900D52343B0
:10436000CCF804306B68A343D1F804905FEA893934
:1043700000D523436B602B68A343D1F804905FEA18
:10438000C93900D523432B60521C0C6834FA02F360
:104390007FF419AFBDE8F88F80000058F44402584C
:1043A000000002580004025800080258000C02588D
:1043B000001002580014025800180258001C02583D
:1043C00000240258002A01D08161704709048161EC
:1043D000704700000148806870470000100000240A
:1043E00002488168027811448160704710000024FF
:1043F00010B5032000F0B2F801F052FE0F490A6830
:10440000C2F303230E4AD35C03F01F03D8400968AC
:1044100001F00F01515C0B4A01F01F0120FA01F17C
:104420001160094908600F2000F010F808B1012060
:1044300010BD00F053F8002010BD000018440258D1
:1044400004DC0008200000241C00002410B58AB001
:104450000446102C30D2002221461C2000F05EF8C9
:104460001C2000F04DF8194804601948016841F01B
:1044700001010160006800F00100009001A902A89C
:1044800001F098FD0798C8B101F0E6FD4000114920
:10449000B0FBF1F1491E10484FF08042026040F23B
:1044A000E732C260416000210161816002F06CFE70
:1044B00038B101200AB010BD0120FBE701F0CCFDAE
:1044C000E5E7054802F088FEF4E700001400002448
:1044D000E844025840420F00040B002482B0074811
:1044E000016841F002010160006800F002000190E3
:1044F00000220F21901E02B000F010B8F4440258C0
:10450000002809DB012100F01F02914040098000D2
:1045100000F1E020C0F8001170470000F0B40D4633
:104520000D4B1B68C3F30223C3F10704042C00D90D
:104530000424191D072901D2002300E0DB1E0126F7
:1045400006FA04F1491E294099409E40761E164005
:104550003143F0BC07F00CBE0CED00E000F00701A9
:10456000054A10684FF6FF03184040EA012003494E
:1045700008431060704700000CED00E00000FA05F1
:1045800001680122C0F8D824002280F8CC24886970
:1045900040F000608861486D024A10434865002081
:1045A000704700000300001070470068416200205F
:1045B000704770B50368586A002907D09C6A00EB01
:1045C00014440020491E4FF482750AE040EA02407C
:1045D00098620DE005EB80069E5904EB1644401CE2
:1045E000C0B28842F6D305EB810144EA024058503C
:1045F000002070BDD0F8E00406F067BC01EBC102FA
:1046000000EB8202D0F8E004126A06F08BBB01EBEB
:10461000C10200EB8202D0F8E004D2F8602206F07A
:10462000EFBBD0F8E00406F052BC0A0601F00F011F
:1046300001EBC10100EB810101D5143101E001F56D
:104640001571006807F0B2BB70B504464FF0010267
:1046500001F00F004FF000050B0600EBC00104EB6A
:10466000810102D514314A7002E001F515714D70D7
:10467000087094F89404012808D084F894242068E1
:1046800007F0B0F884F89454002070BD022070BD8B
:1046900070B5044601F00F002279904201D9012043
:1046A00070BD0B064FF0010201F00F014FF0000545
:1046B00001EBC10104EB810102D514314A7002E023
:1046C00001F515714D708D70087094F894040128EF
:1046D00008D084F89424206807F0EAF984F8945408
:1046E000002070BD022070BD01F00F0101EBC1017F
:1046F00000EB8100D0F8680270472DE9F0410446D4
:104700004FF0010601F00F004FF000050F0600EB1F
:10471000C00104EB810102D514314E7002E001F5B5
:1047200015714D7008708A600B714A7802B1488328
:10473000022B00D14D7194F89404012809D084F81B
:104740009464206806F08EFF284684F89454BDE8EF
:10475000F0810220FBE710B501F00F0404EBC40167
:1047600000EB810101F51571CA600B6100234B61FB
:104770004B700C708379012B00D1CA61827900687B
:1047800007F0EEF9002010BD70B504460D4605F0A7
:104790000F002179884201D9012070BD29064FF010
:1047A00000064FF0010206D500EBC00104EB8101C9
:1047B00014314A7006E005EBC50104EB810101F5F7
:1047C00015714E708A70087094F89404012807D00F
:1047D00084F89424206807F097F9280702D007E0AE
:1047E000022070BDA17904F29C42206807F036F9DE
:1047F00084F89464002070BD10B501F00F0404EB40
:10480000C40100EB81011431CA600B6100234B61CC
:1048100001234B700C708379012B00D1CA6182791E
:10482000006807F09DF9002010BD2DE9F84F0446FF
:104830002568284607F064FB00287ED1206807F031
:104840008BFB002879D0D5F80808C0F30D20C4F8F8
:10485000D404206807F080FB800704D520684169F4
:1048600001F002014161206807F076FBC10604F205
:104870009C40009035D52068816921F0100181614C
:104880002F6A07F00F0000EBC00004EB800606F56E
:104890001576C7F34340022802D0062812D01BE049
:1048A00047F6F070074217D0C7F30A12F1681746AF
:1048B000284607F055FBF0683844F06070693844CA
:1048C000706109E000990822284607F049FB7069E9
:1048D000C7F30A11084470612068816941F0100132
:1048E0008161206807F038FB00034FF0080B4FF0A0
:1048F00000094FF001085ED50026206807F00BFB89
:10490000824655E05FEACA704FD02068F1B207F0E6
:104910001BFB0746F80707D005EB4610C0F8088BCD
:104920003146204604F006F8380709D505EB461055
:10493000C0F808BB3146204600E015E203F0D6FF80
:10494000F80604D505EB46111020C1F8080BB8078E
:104950001CD56869000605D5D5F8040840F48061C7
:10496000C5F8041806EBC60004EB800000F51570CE
:10497000C178012905D180F803902046F1B200F0FA
:10498000F9F905EB46100221C0F8081BB80604D55A
:1049900005EB46102021C0F8081BB80405D505EB2F
:1049A00046104FF40051C0F8081B761C4FEA5A0A13
:1049B000BAF1000FA6D1206807F0CEFA40036CD5FB
:1049C000206807F0A1FA8246002663E05FEACA7019
:1049D0005DD02068F1B207F0A5FA0746F80723D0AA
:1049E00006F00F0108FA01F0D5F834188143C5F834
:1049F000341805EB4610C0F80889A07901280FD1BA
:104A000006EBC60004EB8000D0E9072111440162E7
:104A100036B9606A20B920680121009A07F01EF8B3
:104A20002046F1B2FFF7EAFD380703D505EB461043
:104A3000C0F808B9F80604D505EB46111020C1F8F6
:104A40000809780604D505EB46104021C0F808197E
:104A5000B80716D53146284607F020FA06EBC600FF
:104A600004EB80001430C178012905D180F803904F
:104A70002046F1B200F07AF905EB46110220C1F8A8
:104A80000809380603D53146204603F0C5FF761CD9
:104A90004FEA5A0ABAF1000F98D1206807F05CFA81
:104AA000002811DAD5F8040820F00101C5F804182F
:104AB00094F8CC04012839D0204600F014FA20687C
:104AC000416901F000414161206807F045FA0005A5
:104AD0000BD5D5F80808C00702D0204600F046FAEA
:104AE0002068416901F400614161206807F034FAEF
:104AF00000010AD52068416901F00061416194F824
:104B0000CC04D0B1204600F031FA206807F024FA36
:104B1000C0046ED5D5F8040820F00101C5F80418CA
:104B20002068102107F0BAF900212DE084F8CC9418
:104B300000212046FFF738FDC1E784F8CC842068C7
:104B4000406DC0F38300C4F8D00401212046FFF774
:104B50002BFDDAE705EB41104FF67F3200F51060D0
:104B60008260036823F400130360C0F80822D0F8C1
:104B7000002222F40012C0F80022D0F8002242F0F5
:104B80000062C0F80022491C20798842E2D8D5F89A
:104B90001C0840F00111C5F81C18E07B60B1D5F885
:104BA000840840F00B01C5F88418D5F8440840F09B
:104BB0000B01C5F844180CE0D5F8140842F22B019B
:104BC0000843C5F81408D5F8100840F00B01C5F8E3
:104BD0001018D5F8000820F4FE61C5F80018A17976
:104BE0002068009A06F03AFF2068416901F480517C
:104BF0004161206807F0B0F9800415D5206806F0FF
:104C000073FD206807F06CF9E07101F003FAE279B6
:104C10000146206807F00AFA204600F04DF92068A6
:104C2000416901F400514161206807F095F90007DE
:104C300007D5204600F05BF92068416901F00801C2
:104C40004161206807F088F9000615D5A86920F0B1
:104C50008001A96101260CE006EBC60004EB800090
:104C600090F85702012803D12046F1B2FFF7DDFC8E
:104C7000761C2079B042EFD8206807F06DF9C002A9
:104C80001FD5012615E005EB4610D0F8001906EBFC
:104C9000C60004EB8000027E012A09D1002907DA50
:104CA00080F81780F0B240F080012046FFF7BDFC8D
:104CB000761C2079B042E6D82068416901F4801161
:104CC0004161206807F048F9800230D5012026E0D4
:104CD00005EB4011D1F8001B00EBC00204EB82028F
:104CE00092F85832012B19D1002917DA94F8D434EC
:104CF00001F4803103F0010399420FD182F8578209
:104D0000A96941F08002AA616969090606D4D5F84B
:104D1000040840F40070C5F8040803E0401C217941
:104D20008142D5D82068416901F4001141612068B1
:104D300007F012F9400007D52046FFF75BFC20681A
:104D4000416901F080414161206807F005F94007A1
:104D50000AD520684568680702D52046FFF761FC40
:104D60002068416829434160BDE8F88FD0F8E0042D
:104D700006F005B9D0F8E00406F016B9F8B5044617
:104D8000002C04D094F89504002510B106E0012011
:104D9000F8BD84F89454204600F05CF8032084F8B1
:104DA0009504206806F054FE207C8DF8000094E8FD
:104DB0000F0006F0A7FC022618B184F895640120C4
:104DC000F8BD2068002107F0EAF818B184F895646E
:104DD0000120F8BD002101270CE001EBC10004EB2C
:104DE000800047750175C1850576C561056245621C
:104DF000491CC9B220798842EFD800210DE001EBAF
:104E0000C10004EB800000F515704570017005715C
:104E10008560C5600561491CC9B220798842EED819
:104E2000207C8DF8000094E80F0006F05BFD18B1BF
:104E300084F895640120F8BD657484F89574207B2E
:104E4000012802D12046FFF79BFB206806F03CFDBD
:104E50000020F8BD10B5B0B00446B82102A8FBF799
:104E6000FBFA13492068884220D100204FF48021AA
:104E7000CDE902104FF44010239002A800F094FAFC
:104E800008B1FCF7DDFF00F0B5F80A48016841F011
:104E900000710160006800F000700190002205219F
:104EA0004D20FFF73BFB4D20FFF72AFB30B010BD34
:104EB00000000440D844025870B504460125E0794A
:104EC00000280ED0022801D0FCF7BAFFD4F8E00485
:104ED000294606F0DAF8D4F8E004BDE8704006F0A0
:104EE0008DB80025F2E7D0F8E00406F0B7B8D0F8A6
:104EF000E00406F0BDB810B5044694F89404012807
:104F00000AD0012084F894046174206807F077F8CF
:104F1000002084F8940410BD022010BDD0F8E024D5
:104F200000F29C41104606F0BCB810B5044620685B
:104F300094F89414012909D0012184F89414C168CB
:104F4000490609D5617B012902D005E0022010BD88
:104F5000816B41F480318163206806F079FF20681D
:104F600006F0A4FC002084F8940410BD10B504469B
:104F7000D4F8E00406F0D7F82068D0F8001E41F01D
:104F80000101C0F8001EE07A002804D00248016840
:104F900041F00601016010BD10ED00E070B514494C
:104FA0000A68D243520708D5096801F00701814217
:104FB00001D0012070BD002070BD0A6822F00702F8
:104FC00002430A60FFF706FA0446094D4FF47A7669
:104FD000083D06E0FFF7FEF9001BB04201D90120B1
:104FE00070BD2868C0438004F4D4002070BD000068
:104FF0000C4802580248016841F080710160704716
:105000000C48025810B501F005F805490968054A31
:10501000C1F30211515C01F01F01C84010BD000036
:105020002044025804DC000810B569490A6802F0FF
:1050300003020968C1F30531654B1B1D1B68C3F3EF
:105040000013634C14342468C4F3CC0414FB03F33E
:1050500000EE103AB8EE400A002971D09FED5D1ABB
:105060005B4BF7EE000A1033F2B39FED5B2A012A87
:105070007FD0022A7CD001EE901A1968F8EE611AEE
:10508000C2EE212AC1F3080101EE901AF8EE611A6E
:1050900040EE011A31EEA00A22EE800A1968C1F32F
:1050A000462101EE101AB8EE411A31EE201AC0EE78
:1050B000011ABCEEE11A80ED001A1968C1F306412D
:1050C00001EE101AB8EE411A31EE201AC0EE011AA4
:1050D000BCEEE11A80ED011A1968C1F3066101EE18
:1050E000101AB8EE411A00E008E071EE200A80EED6
:1050F000201ABCEEC10A80ED020A10BD344A283ADB
:105100001468A4061ED51268C2F3C104334AE240F3
:1051100001EE902AF8EE612A01EE901A1968F8EE75
:10512000611A82EEA12AC1F3080101EE901AF8EE8D
:10513000611A40EE011A31EEA00A22EE000AADE734
:1051400041E016E001EE901ADFED252A1968F8EE2D
:10515000611A82EEA12AC1F3080101EE901AF8EE5D
:10516000611A40EE011A31EEA00A22EE000A95E71C
:1051700013E001EE901A1968F8EE611AC2EE212AC6
:10518000C1F3080101EE901AF8EE611A40EE011A1F
:1051900031EEA00A22EE800A80E701EE901ADFEDE0
:1051A000112A1968F8EE611A82EEA12AC1F30801EA
:1051B00001EE901AF8EE611A40EE011A31EEA00AE3
:1051C00022EE000A6AE7002101604160816010BDA3
:1051D00028440258000000390024744A0090D0038B
:1051E0000024744C001BB74B10B569490A6802F0E3
:1051F00003020968C1F30551654B1B1D1B68C3F30E
:105200000023634C1C342468C4F3CC0414FB03F364
:1052100000EE103AB8EE400A002971D09FED5D1AF9
:105220005B4BF7EE000A1833F2B39FED5B2A012ABD
:105230007FD0022A7CD001EE901A1968F8EE611A2C
:10524000C2EE212AC1F3080101EE901AF8EE611AAC
:1052500040EE011A31EEA00A22EE800A1968C1F36D
:10526000462101EE101AB8EE411A31EE201AC0EEB6
:10527000011ABCEEE11A80ED001A1968C1F306416B
:1052800001EE101AB8EE411A31EE201AC0EE011AE2
:10529000BCEEE11A80ED011A1968C1F3066101EE56
:1052A000101AB8EE411A00E008E071EE200A80EE14
:1052B000201ABCEEC10A80ED020A10BD344A283A19
:1052C0001468A4061ED51268C2F3C104334AE24032
:1052D00001EE902AF8EE612A01EE901A1968F8EEB4
:1052E000611A82EEA12AC1F3080101EE901AF8EECC
:1052F000611A40EE011A31EEA00A22EE000AADE773
:1053000041E016E001EE901ADFED252A1968F8EE6B
:10531000611A82EEA12AC1F3080101EE901AF8EE9B
:10532000611A40EE011A31EEA00A22EE000A95E75A
:1053300013E001EE901A1968F8EE611AC2EE212A04
:10534000C1F3080101EE901AF8EE611A40EE011A5D
:1053500031EEA00A22EE800A80E701EE901ADFED1E
:10536000112A1968F8EE611A82EEA12AC1F3080128
:1053700001EE901AF8EE611A40EE011A31EEA00A21
:1053800022EE000A6AE7002101604160816010BDE1
:1053900028440258000000390024744A0090D003C9
:1053A0000024744C001BB74B2DE9FC5F044600251C
:1053B0000026F94F2068DFF8E493C043010104F1AF
:1053C0000800019004F1280000900DD4606EB8B17F
:1053D000B0F5801F19D0B0F5001F1CD0B0F5401FEC
:1053E00000D00125EDB12E462088C043C00535D43C
:1053F000A06D05282FD2DFE800F01D22282F2F00F6
:10540000386840F400303860ECE70198022103F07E
:1054100075FB0546E6E70098022103F001FC05460E
:10542000E0E7D9F80000616E20F440100843C9F8A5
:105430000000D9E7386840F4003038600CE001988B
:10544000002103F05BFB054606E00098002103F015
:10545000E7FB054600E00125A5B12E462088DFF8D0
:105460004083C04340051FD4D4F8A400B0F5C00F5A
:1054700018D010DC50B3B0F5001F2CD0B0F5800F61
:105480000FD12EE0D9F80000A16D20F007000843ED
:10549000C9F80000E2E7B0F5000F03D0B0F5200F27
:1054A00000D001251DB32E462088C043000531D40D
:1054B000D4F8A800B0F1407F2AD022DCF0B3B0F1DC
:1054C000807F4BD0B0F1007F21D14DE0386840F4AF
:1054D00000303860E6E70198002103F00FFB054635
:1054E000E0E70098002103F09BFB0546DAE7D8F8D7
:1054F0000000D4F8A41020F460000843C8F80000AD
:10550000D2E7B0F1806F03D0B0F1A06F00D00125D9
:1055100085B32E462068C04380010AD4E06C30B1C8
:10552000102832D0202836D0302800D001258DB365
:105530002E462088C043C00446D400E009E0E06D58
:10554000B0F5005F5CD036DCA0B3B0F5805F38D139
:1055500050E0386840F400303860D9E70198002105
:1055600003F0CCFA0546D3E70098002103F058FB7E
:105570000546CDE7FFE7D8F80000D4F8A81020F0E2
:10558000E0600843C8F80000C4E7386840F4003021
:105590003860CCE705E00198022103F0AFFA054638
:1055A000C5E77E48001F0168E26C21F0300111431D
:1055B0000160BEE719E0B0F5405F03D0B0F5804F61
:1055C00000D0012515B32E462088C04380042FD477
:1055D000206EB0F5403F29D021DC38B3B0F5803FD4
:1055E00038D0B0F5003F20D13AE0386840F40030C0
:1055F0003860E7E70198002103F080FA0546E1E70B
:105600000098002103F00CFB0546DBE7D9F8000009
:10561000E16D20F4E0400843C9F80000D4E7B0F59C
:10562000802F03D0B0F5A02F00D00125F5B12E4674
:105630002088C04340042BD4D4F8AC00B0F1405FC4
:1056400024D01CDC10B3B0F1805F4FD0B0F1005F0C
:105650001BD152E00198012103F050FA0546E5E71D
:105660000098012103F0DCFA0546DFE7D9F80000D5
:10567000216E20F4E0200843C9F80000D8E7B0F11B
:10568000804F03D0B0F1A04F00D00125A5B32E4626
:105690002088C04300040AD4E06E30B1B0F1805FCE
:1056A0003DD0B0F1005F3FD00125B5B32E46206854
:1056B000C043C0010AD4A06C30B1012843D00228F5
:1056C00046D0032800D0012545B32E462068C043AC
:1056D00040025AD4DFF8CCB0DBF8000040F4807010
:1056E000CBF80000FEF776FE824648E001980121E3
:1056F00003F004FA0546C9E705E00098012103F02C
:105700008FFA0546C2E7D8F80000D4F8AC1020F0B4
:10571000E0400843C8F80000BAE70BE01EE0386834
:1057200040F400303860C0E70198012103F0E6F949
:105730000546BAE7D9F80000E16E20F04050084372
:10574000C9F80000B3E7386840F400303860BBE7C0
:105750000198022103F0D2F90546B5E70F48001F72
:105760000168A26C21F0030111430160AEE7FEF76E
:1057700031FEA0EB0A00642801D9032503E0DBF821
:105780000000C005F3D58DB12E462078DFF818A0B3
:10579000C043C00763D073E02C4402585044025801
:1057A000584402580048025854440258DFF850B494
:1057B000DBF80000B4F8B01000F4407001F4407160
:1057C000884211D0DBF8000020F44070DBF80010B4
:1057D00041F48031CBF80010DBF8001021F4803167
:1057E000CBF80010CBF80000D4F8B000B0F5807F03
:1057F00011D1FEF7EFFD824609E0FEF7EBFDA0EBCD
:105800000A0141F28830814201D9032503E0DBF827
:1058100000008007F1D50DB12E46B6E7D4F8B000F0
:10582000C0F3012103290FD0F5486038016821F445
:105830007C510160DBF80000B4F8B010C1F30B013B
:105840000843CBF80000A0E7ED4960390A68ED4B4A
:1058500022F47C52184042EA10100860EAE7A06F78
:1058600018280BD005DC48B1082815D0102804D121
:1058700018E0202802D0282800D00125C5B12E46E6
:105880002078C04380072BD4606F062825D2DFE83C
:1058900000F025181E2525250198012103F02EF979
:1058A0000546EBE70098012103F0BAF90546E5E764
:1058B000DAF80000A16F20F038000843CAF80000B1
:1058C000DEE70198012103F019F9054606E000988A
:1058D000012103F0A5F9054600E001256DB12E4632
:1058E0002078C043400720D4D4F89000062819D26D
:1058F000DFE800F0190C12191919DAF80000616FCD
:1059000020F007000843CAF80000E9E701980121E8
:1059100003F0F4F8054606E00098012103F080F951
:10592000054600E0012595B12E462078C04380064B
:1059300020D4D4F88C00B0F1405F19D011DCB8B19C
:10594000B0F1805F28D0B0F1005F10D12AE0D8F824
:105950000000D4F8901020F007000843C8F80000B9
:10596000E3E7B0F1804F03D0B0F1A04F00D00125A4
:10597000F5B12E462078C04340062CD4D4F89800C8
:10598000B0F5406F25D01DDC18B3B0F5806F34D072
:10599000B0F5006F1CD136E00198002103F0AEF89D
:1059A0000546E5E70098022103F03AF90546DFE7EE
:1059B000DAF80000D4F88C1020F0E0400843CAF870
:1059C0000000D7E7B0F5805F03D0B0F5A05F00D04E
:1059D0000125F5B12E462078C04300062CD4D4F81A
:1059E0009C00B0F5C04F25D01DDC18B3B0F5005FAA
:1059F0002CD0B0F5804F1CD12EE00198002103F08F
:105A00007DF80546E5E70098022103F009F905460F
:105A1000DFE7D8F80000D4F8981020F4E0500843ED
:105A2000C8F80000D7E7B0F5004F03D0B0F5204F1D
:105A300000D00125B5B12E462078C04300072AD4F6
:105A4000D4F88000B0F5805F16D01BE001980021EB
:105A500003F054F80546EDE70098022103F0E0F862
:105A60000546E7E7D8F80000D4F89C1020F4604021
:105A70000843C8F80000DFE70098022103F0D0F8DF
:105A800000B10126DAF80000D4F8801020F440506C
:105A90000843CAF800002078C043C00613D4D4F8E5
:105AA0009400B0F5807F05D10098022103F0B8F88A
:105AB00000B10126D8F80000D4F8941020F440700A
:105AC0000843C8F800002068C04300030BD4D4F892
:105AD000A000E8B3B0F5803F7DD0B0F5003F00D026
